:100000000C9408010C9430010C9430010C943001D4
:100010000C9430010C9430010C9430010C9430019C
:100020000C9430010C9430010C94B7100C94BD1159
:100030000C9430010C9430010C9430010C9430017C
:100040000C9430010C9430010C9430010C9430016C
:100050000C9430010C9430010C9430010C94C604C3
:100060000C9430010C94600D0C943A0D0C943001FA
:100070000C9430010C9430010C9430010C9430013C
:100080000C9430010C9430010C9430010C9430012C
:100090000C9430010C9430010C9430010C9430011C
:1000A0000C9430010C9430010C9430012A032D0380
:1000B0001C03200326034E034E034E033103350376
:1000C00039033F0343034E034903000000002300AC
:1000D000260029002C002F00302E302E302E30002C
:1000E0003132372E302E302E310000000000240037
:1000F00027002A002D00300072756E2D627269642F
:1001000067650A000A000A004E6F7420466F756E1C
:100110006400070605040100080A0B0C0D09000025
:100120000000250028002B002E00310004040404E8
:10013000040304050202020204030202020206068C
:100140000606060604040202020404040802011062
:100150004080401020408040800802040180402000
:100160001002011080102040402000000002000911
:100170000F0000030401000C00000000000000005C
:10018000000000000000000000080B000202020155
:10019000000904000001020200000524001001050E
:1001A000240101010424020605240600010705813B
:1001B0000310004009040100020A000000070502C4
:1001C00002400000070583024000000403090441C7
:1001D000726475696E6F204C4C430041726475699E
:1001E0006E6F2059756E0012010002000000404140
:1001F00023418000010102030112010002EF02010C
:10020000404123418000010102030100FA13081B51
:1002100011241FBECFEFDAE0DEBFCDBF12E0A0E0B9
:10022000B1E0E6EAFDE302C005900D92AA32B10703
:10023000D9F725E0AAE2B2E001C01D92A73FB207BC
:10024000E1F711E0C7E0D1E004C02197FE010E9470
:10025000691BC630D107C9F70E9478170C94C61ED7
:100260000C940000FC01918D828D981761F0828DB5
:10027000DF01A80FB11D5D968C91928D9F5F9F73DA
:10028000928F90E008958FEF9FEF0895FC01918D7C
:10029000828D981731F0828DE80FF11D858D90E0E9
:1002A00008958FEF9FEF0895FC01918D228D892F86
:1002B00090E0805C9F4F821B91098F73992708956E
:1002C00080E090E0892B29F00E94190B81110C9499
:1002D000000008953FB7F89480912F02909130026A
:1002E000A0913102B091320226B5A89B05C02F3FE4
:1002F00019F00196A11DB11D3FBFBA2FA92F982F4C
:100300008827820F911DA11DB11DBC01CD0142E0C6
:10031000660F771F881F991F4A95D1F70895089592
:10032000FB012785FC012787FB012685FC01268729
:100330000895FC0187850895FC0174964C961192EE
:10034000E817F907E1F70895FC01158A148A089562
:10035000DC011296ED91FC9113973097B1F0248156
:1003600035812115310589F054965C91F901E51B21
:10037000F1096E9FC0016F9F900D1124459F800D64
:10038000911D1124B9010E94551B862F0895FC016F
:10039000148A0895FC01148A089580E00895089550
:1003A000FC0180E091E0861B91094081489F90010B
:1003B000499F300D112430834181489F9001499F0E
:1003C000300D112431834281489F9001499F300DA7
:1003D0001124328308950C94041C0C94041C0C9476
:1003E000041C0C94041C0C94041CAF92BF92CF927A
:1003F000DF92EF92FF920F931F93CF93DF9300D082
:10040000CDB7DEB7FC0187858823B1F05A019B0187
:100410008CE6898386858A83C12CD12CE12CF12C32
:100420008A0142E050E0BE016F5F7F4F8485958571
:100430000E94C50EC50102C080E090E00F900F90B1
:10044000DF91CF911F910F91FF90EF90DF90CF90B0
:10045000BF90AF900895AF92BF92CF92DF92EF928C
:10046000FF920F931F93CF93DF93CDB7DEB72A97F9
:100470000FB6F894DEBF0FBECDBF5C018EE48F8354
:10048000F50186819781988789871A8219821C8253
:100490001B821E821D8260EE70E0CE0101960E94DA
:1004A000D70CF5018185811106C068ED70E0CE01A1
:1004B00001960E94D70C0D811E8129813A81CC249E
:1004C000C394D12CCE010A967C0143E050E0BE01DA
:1004D000695F7F4FF501848195810E94C50E81E09F
:1004E0009A85913009F080E0F501808789819A81B1
:1004F0000E94041C2A960FB6F894DEBF0FBECDBF33
:10050000DF91CF911F910F91FF90EF90DF90CF90EF
:10051000BF90AF900895EF92FF920F931F93CF93E8
:10052000DF93CDB7DEB728970FB6F894DEBF0FBEC6
:10053000CDBF7C018B0168E272E0CE0101964F8352
:1005400058870E94FF0C62E170E0CE0101960E9484
:10055000360CD80112966C91CE0101960E945D0C6A
:100560006EE2CE0101960E94A70CF8016381CE01D4
:1005700001960E945D0C6EE2CE0101960E94A70CCE
:10058000D80114966C91CE0101960E945D0C6EE22A
:10059000CE0101960E94A70CF8016581CE0101965B
:1005A0000E945D0CD701ED91FC9169817A810684EE
:1005B000F785E02D4F815885C70109958C01898108
:1005C0009A810E94041CC80128960FB6F894DEBFD9
:1005D0000FBECDBFDF91CF911F910F91FF90EF9094
:1005E0000895FC01848DDF01A80FB11DA35ABF4FF0
:1005F0002C91848D90E001968F739927848FA68922
:10060000B7892C93A089B1898C9180648C93938D48
:10061000848D981306C00288F389E02D80818F7D38
:100620008083089590E0FC013197EF30F105B0F53B
:10063000EA5AFF4F0C94691B809180008F7703C0AA
:10064000809180008F7D809380000895809180004C
:10065000877FF9CF84B58F7702C084B58F7D84BD45
:100660000895809190008F7707C0809190008F7DD2
:1006700003C080919000877F8093900008958091BF
:10068000C0008F7703C08091C0008F7D8093C00031
:1006900008958091C200877F8093C2000895CF9211
:1006A000DF92EF92FF920F931F93CF93DF9300D0CF
:1006B00000D01F92CDB7DEB7FC019A0100811181F5
:1006C0000115110509F4B8C08681882349F0AB01F2
:1006D000480F511DCA01648175810E94551BBC01E0
:1006E000878180FF07C0848195810197AC01461BFB
:1006F000570BBA01E280F380E60EF71EF801828103
:100700009381E816F90608F097C0F9018081898382
:1007100081818A8382818B8383818C8384818D8391
:10072000F8012589368937FD1EC03327F901E659BE
:10073000FE4F8491F901E55BFE4FC490F901E45D41
:10074000FE4FD490DD2079F081110E941203ED2D2F
:10075000F0E0EE0FFF1FE653FF4FA591B491EC912F
:10076000EC2181E009F480E06C8116162CF48111F3
:100770000DC0660F6F5F06C0662341F0882331F01D
:10078000660F6095CE0101960E94D001F801918D0F
:100790008D8118162CF461E0691B880F680F06C064
:1007A000882341F0692F6095880F681BCE01019660
:1007B0000E94D0019B814A815981F80122813381B5
:1007C000E216F306C8F58781882359F0589F9001F7
:1007D0001124532F489F90011124432F989FC0014B
:1007E0001124F8018585628520853185861308C02E
:1007F000B701660F771FE60EF71EE20EF31E0AC062
:10080000EE0CFF1CEE0CFF1CE20EF31EF701E80FCE
:10081000F11D1082F8018285F701E80FF11D508368
:10082000F8018385F701E80FF11D4083F801848505
:10083000F701E80FF11D90830F900F900F900F902C
:100840000F90DF91CF911F910F91FF90EF90DF906C
:10085000CF900895DC011296ED91FC91139730979B
:1008600091F0248135812115310569F014968C9120
:1008700080FF06C021503109C901861B970BBC01BE
:10088000CF010C944F030895CF93DF9390E0FC01C8
:10089000E55BFE4F2491FC01E45DFE4F84918823CB
:1008A00061F190E0880F991FFC01E651FF4FC5915F
:1008B000D491FC01E25EFE4FA591B491611109C093
:1008C0009FB7F8948881209582238883EC912E230A
:1008D0000BC0623061F49FB7F8943881822F809505
:1008E00083238883EC912E2B2C939FBF06C08FB758
:1008F000F894E8812E2B28838FBFDF91CF91089544
:100900008F929F92AF92BF92CF92DF92EF92FF921F
:100910006B017C010E946A014B015C01C114D1048E
:10092000E104F104F1F00E946A01DC01CB018819B5
:100930009909AA09BB09883E9340A105B10570F346
:1009400021E0C21AD108E108F10888EE880E83E0A0
:10095000981EA11CB11CC114D104E104F10419F7C3
:10096000DDCFFF90EF90DF90CF90BF90AF909F9042
:100970008F9008952FB7F89460912B0270912C02FC
:1009800080912D0290912E022FBF08951F920F92F9
:100990000FB60F9211242F933F938F939F93AF9392
:1009A000BF9380912B0290912C02A0912D02B091C7
:1009B0002E0230912A0223E0230F2D3720F40196D6
:1009C000A11DB11D05C026E8230F0296A11DB11D72
:1009D00020932A0280932B0290932C02A0932D0245
:1009E000B0932E0280912F0290913002A09131029B
:1009F000B09132020196A11DB11D80932F029093F8
:100A00003002A0933102B0933202BF91AF919F9117
:100A10008F913F912F910F900FBE0F901F901895BF
:100A2000CF93DF93EC018D819E81DC01ED91FC91F0
:100A30000480F581E02D09951816190654F48D816E
:100A40009E81DC01ED91FC910680F781E02D0995F6
:100A5000EACFDF91CF9108958F929F92AF92BF928C
:100A6000CF92DF92EF92FF92CF93DF93EC016B0175
:100A70000E94BA044B015C01E12CF12C8D819E8116
:100A8000DC01ED91FC910680F781E02D099597FF3F
:100A90000FC00E94BA04DC01CB0188199909AA0988
:100AA000BB098C159D05AE05BF0540F38FEF9FEF89
:100AB000DF91CF91FF90EF90DF90CF90BF90AF90FC
:100AC0009F908F900895FC01238134812627022E68
:100AD0002295207F2025032E322F22952F7002266B
:100AE000269532272327220F220F220F2025348319
:100AF00023830895CF92DF92EF92FF920F931F937B
:100B00006801790100E010E020E030E00E94C50EAD
:100B10001F910F91FF90EF90DF90CF900895AF92CB
:100B2000BF92CF92DF92EF92FF920F931F93CF93DA
:100B3000DF93CDB7DEB727970FB6F894DEBF0FBEB1
:100B4000CDBF5C019B0183E489835A834B83FB0106
:100B500001900020E9F731978F01061B170BCC2479
:100B6000C394D12CCE0107967C0143E050E0BE0136
:100B70006F5F7F4FD5011C968D919C911D970E94B0
:100B8000C50E892BC1F18F81F501868793E69C8381
:100B90008D8301E010E09E012A5F3F4F42E050E06C
:100BA000BE016C5F7F4FD5011C968D919C911D9766
:100BB0000E947A058E81882339F061E070E080E040
:100BC00090E00E948004E5CF81E0F50187870190E5
:100BD000F081E02D0488F589E02DC501099581118A
:100BE0000DC0D501ED91FC910288F389E02DC5017E
:100BF0000995F501168680E090E002C081E090E062
:100C000027960FB6F894DEBF0FBECDBFDF91CF9110
:100C10001F910F91FF90EF90DF90CF90BF90AF901A
:100C20000895EF92FF920F931F93CF93DF9300D01D
:100C30001F92CDB7DEB7DC011F962C911F972223A0
:100C400001F17C01ED91FC910480F581E02D099585
:100C5000892BC9F48CE48983F70186858A8301E0B6
:100C600010E09E012D5F3F4F42E050E0BE016F5FFC
:100C70007F4F848595850E947A0581E09B81913024
:100C800019F080E001C081E00F900F900F90DF918C
:100C9000CF911F910F91FF90EF900895EF92FF92E7
:100CA0000F931F93CF93DF9300D01F92CDB7DEB782
:100CB000FC012089211118C07C01118A8BE48983F1
:100CC00080E48B8386858A839F012E5E3F4F00E4FC
:100CD00010E043E050E0BE016F5F7F4F8485958553
:100CE0000E947A05F701808B0F900F900F90DF9193
:100CF000CF911F910F91FF90EF900895CF93DF93C5
:100D0000EC010E944E068889882331F08989C80F3A
:100D1000D11D8A8990E002C08FEF9FEFDF91CF91C4
:100D20000895CF92DF92EF92FF920F931F93CF938C
:100D3000DF93EC016A017B0100E010E088898111FA
:100D400006C0CE010E944E068889882399F00F5F65
:100D50001F4F898991E0980F998BFE01E80FF11DD3
:100D60008289F70181937F0188898150888B0C15D6
:100D70001D0520F3C801DF91CF911F910F91FF90C6
:100D8000EF90DF90CF900895CF93DF93EC010E9416
:100D90004E068889882359F08150888B898991E093
:100DA000980F998BC80FD11D8A8990E002C08FEFF0
:100DB0009FEFDF91CF910895CF93DF93EC010E94D5
:100DC0004E06888990E0DF91CF9108950F931F938D
:100DD00000E010E020E030E00E947A051F910F91C2
:100DE0000895CF93DF9300D0CDB7DEB722E62983F5
:100DF0006A8342E050E0BE016F5F7F4FFC01848157
:100E000095810E94E60681E090E00F900F90DF91BF
:100E1000CF910895CF93DF9300D01F92CDB7DEB767
:100E2000FC012785222389F08CE6898386858A83C5
:100E30006B8343E050E0BE016F5F7F4F84859585F3
:100E40000E94E60681E090E002C080E090E00F9012
:100E50000F900F90DF91CF9108950F931F93CF9331
:100E6000DF9300D0CDB7DEB78C01FC0187858823E6
:100E700069F08AE6898386858A8342E050E0BE0174
:100E80006F5F7F4F848595850E94E606F80117867F
:100E9000108A118A0F900F90DF91CF911F910F91BF
:100EA0000895CF92DF92EF92FF920F931F93CF930B
:100EB000DF93CDB7DEB729970FB6F894DEBF0FBE2C
:100EC000CDBF8C010E946A01D8011E96CD90DD90A5
:100ED000ED90FC905197DC01CB018C199D09AE0976
:100EE000BF09C297A105B10568F3F894F8018481A0
:100EF00095819A8389830084F185E02D7F018FEFAE
:100F0000E81AF80A80818B83D8019C915296ED9162
:100F1000FC91539754968C91992309F430C0908199
:100F2000982B9C839081809589238D838D818E83DE
:100F300088E08F835C816D814B813F812E81898127
:100F40009A81D701508347FD252F3A952083262F7C
:100F500039F0441F00C000006083000000C0F2CFE1
:100F600038E04D9160830000019761F7D8015396F6
:100F7000FC93EE9352974B833F832E833AC090812C
:100F8000982B9C839081809589238D838D81888780
:100F900088E089875C816D814B81398528858981CD
:100FA0009A81D701508347FD252F00C000C02083C0
:100FB00000C000C000C000C000C060830000262F39
:100FC0003A9541F0441F000000C000C000C000C0BE
:100FD00000C0E8CF38E04D9100C0608300C00197A9
:100FE00009F7D8015396FC93EE9352974B833987B8
:100FF00028879A83898378940E946A01F80166871A
:101000007787808B918B29960FB6F894DEBF0FBE41
:10101000CDBFDF91CF911F910F91FF90EF90DF90A7
:10102000CF900895FC0180819181009739F0FC01F7
:1010300020853185232B11F00C94510708958F9250
:101040009F92AF92BF92CF92DF92EF92FF920F9357
:101050001F93CF93DF93DC011296ED91FC911397D0
:10106000309719F0E480F58002C0E12CF12C20E0EB
:1010700030E02E153F05D9F020343105A8F4D90110
:1010800043E0B695A7954A95E1F7A80FB91F549686
:101090004C9150E0B9016770772702C0559547958C
:1010A0006A95E2F740FF05C02F5F3F4FE2CF80E037
:1010B0006EC0EF2BE1F3EC014701A12CB12CC5016F
:1010C000B40181149104A104B10431F00E94D91D2E
:1010D000A50194010E942C1E6034710580F7DB018C
:1010E00093E0B695A7959A95E1F7AC0FBD1FFD016A
:1010F000749654964C9167707727242F30E0062E13
:1011000002C0359527950A94E2F720FDD8CF81E0FB
:1011100090E0A0E0B0E004C0880F991FAA1FBB1F99
:101120006A95D2F7842B808300E010E06E01B5E071
:10113000CB0ED11C5E018AE0A80EB11C0E151F0556
:1011400009F100341105D8F4F80183E0F695E7952C
:101150008A95E1F7EC0FFD1F848990E098012770D4
:10116000332702C0959587952A95E2F780FF02C044
:10117000A50101C0A601B801CE010E942A040F5F9B
:101180001F4FDCCF8A819B810E94120881E0DF9192
:10119000CF911F910F91FF90EF90DF90CF90BF9074
:1011A000AF909F908F900895AF92BF92CF92DF92B1
:1011B000EF92FF920F931F93CF93DF93EC01EA819D
:1011C000FB81309719F0E480F58002C0E12CF12C0E
:1011D0008C899D898E159F0548F5EF2B39F100E02C
:1011E00010E06E0185E0C80ED11C5E018AE0A80EF9
:1011F000B11C0E151F0579F08C899D898017910708
:1012000010F0A50101C0A601B801CE010E942A0478
:101210000F5F1F4FEECF8A819B810E9412088C893D
:101220009D8901969D8B8C8B81E001C080E0DF91D0
:10123000CF911F910F91FF90EF90DF90CF90BF90D3
:10124000AF900895CF92DF92EF92FF920F931F938A
:10125000CF93DF9300D000D01F92CDB7DEB7FC0153
:1012600080916F058983809170058A8380917105D3
:101270008B83809172058C83809173058D83848923
:1012800090E0C280D380C114D10409F459C0D601C2
:1012900014962D913C9115978217930708F050C032
:1012A0008F0142856581CF010E94A8018983F801E1
:1012B00043856681C8010E94A8018A83D8011C96D3
:1012C0004C911C9717966C91C8010E94A8018B83C2
:1012D000F80145856085C8010E94A8018C83D8016A
:1012E0001E964C911E9719966C91C8010E94A801F8
:1012F0008D83F60180819181892B69F4D801129642
:101300008D919C9113970E941208F80184898F5F38
:10131000848B81E016C0E12CF12CD60114968D91BE
:101320009C911597E816F90648F7AE014F5F5F4F9D
:10133000B701C6010E944F03FFEFEF1AFF0AEDCF7E
:1013400080E00F900F900F900F900F90DF91CF9152
:101350001F910F91FF90EF90DF90CF900895CF9263
:10136000DF92EF92FF920F931F93CF93DF93EC01E5
:101370008C8990E00A811B810115110549F1F80162
:10138000248135818217930718F56E01F5E0CF0EA1
:10139000D11CF80180819181892B49F48A819B813C
:1013A0000E9412088C898F5F8C8B81E012C0E12C27
:1013B000F12CF80184819581E816F90678F7A601E9
:1013C000B701C8010E944F03FFEFEF1AFF0AF1CFE8
:1013D00080E0DF91CF911F910F91FF90EF90DF9010
:1013E000CF9008951F93CF93DF93EC01162F89813F
:1013F000882331F08E8187FD03C060E00E944404A1
:101400001E838981882339F061E0812F0E94440482
:10141000812F0E947B10812F90E0FC01E45DFE4F44
:10142000E491F0E0EE0FFF1FE25EFE4F2591349154
:101430003B8B2A8BFC01E55BFE4FE491EC8BDF914B
:10144000CF911F910895EF92FF920F931F93CF9327
:10145000DF93EC017B0188859985009711F00E944C
:10146000041C9D858A85981719F084E090E002C0DD
:1014700083E090E08E9D80018F9D100D9E9D100D4C
:1014800011241D830C83C8010E946F1B99878887D4
:10149000009741F0A80160E070E00E94741DFB829B
:1014A000EA8204C01D821C821B821A82DF91CF91C6
:1014B0001F910F91FF90EF9008950895089508955A
:1014C00008950895EF920F931F93CF93DF93FC013C
:1014D000E90184E092E09183808373836283E482F4
:1014E000DA018C91858311968C91119786831296DF
:1014F0008C911297878313968C91139780871496FB
:101500008C91818788818287898183878A8184877A
:101510008B8185878C818687D8018C9187871196EE
:101520008C911197808B12968C911297818B1396C8
:101530008C911397828B14968C91838BDF91CF9132
:101540001F910F91EF900895EF920F931F93CF93F8
:10155000DF93EC010E94620A80EE91E09983888318
:10156000CE01DF91CF911F910F91EF900C949C01D0
:10157000EF92FF920F931F93CF93DF938C017B0128
:10158000C0E0D0E0F701EC0FFD1F6491662361F02D
:10159000D801ED91FC910190F081E02DC8010995F1
:1015A000892B11F02196EECFCE01DF91CF911F91C3
:1015B0000F91FF90EF900895CF92DF92EF92FF92FC
:1015C0000F931F93CF93DF936C017A018B01C0E0DF
:1015D000D0E0CE15DF0589F0D8016D918D01D601DF
:1015E000ED91FC910190F081E02DC6010995892BC8
:1015F00011F47E0102C02196ECCFC701DF91CF919B
:101600001F910F91FF90EF90DF90CF900895CF93AF
:10161000DF93EC0188819981009711F00E94041CEE
:10162000198218821D821C821B821A82DF91CF913F
:10163000089583E392E00E94540121E0892B09F48C
:1016400020E0822F08950E94661D6115710579F0D2
:10165000FB0101900020E9F73197AF01461B570BC2
:10166000DC01ED91FC910280F381E02D099480E092
:1016700090E008954F925F926F927F92EF92FF9267
:101680000F931F93CF93DF93CDB7DEB7A1970FB61C
:10169000F894DEBF0FBECDBF7C01FA01CB0119A2C9
:1016A000223008F42AE08E010F5D1F4F422E512C8C
:1016B000612C712CBF01A30192010E94951EF901BA
:1016C000CA01015011096A3014F4605D01C0695CFF
:1016D000D8016C93232B242B252B61F7B801C7016C
:1016E0000E94250BA1960FB6F894DEBF0FBECDBFAA
:1016F000DF91CF911F910F91FF90EF907F906F90AE
:101700005F904F9008958F929F92AF92BF92CF9229
:10171000DF92EF92FF920F931F93CF93DF937C01A1
:10172000EB016C0182E0C80ED11C4701E5E08E0E92
:10173000911C00E010E0F60141916F0150E060E083
:1017400070E02AE0CE010E943A0B5C01E881F98149
:101750000190F081E02D6EE2CE0109958A0D9B1D6E
:10176000080F191FC814D90431F7F701458150E05B
:1017700060E070E02AE0CE010E943A0B800F911FDA
:10178000DF91CF911F910F91FF90EF90DF90CF905D
:10179000BF90AF909F908F900895EF92FF920F931C
:1017A0001F93CF93DF93EC0181E0888F9B8D8C8D0D
:1017B000981305C0E889F989808185FD24C0F62E3B
:1017C0000B8D10E00F5F1F4F0F731127E02E8C8DD4
:1017D000E8120CC00FB607FCFACFE889F9898081BE
:1017E00085FFF5CFCE010E94F102F1CF8B8DFE0176
:1017F000E80FF11DE35AFF4FF0820B8FEA89FB8956
:101800008081806207C0EE89FF896083E889F98959
:1018100080818064808381E090E0DF91CF911F918F
:101820000F91FF90EF900895CF93DF93EC01888D97
:101830008823C9F0EA89FB89808185FD05C0A889D4
:10184000B9898C9186FD0FC00FB607FCF5CF80815A
:1018500085FFF2CFA889B9898C9185FFEDCFCE01A4
:101860000E94F102E7CFDF91CF9108950F931F936C
:10187000CF93DF93EC0188819981009729F02A8129
:101880003B812617370788F48B016F5F7F4F0E94DB
:101890009C1C009761F0998388831B830A832C81A9
:1018A0003D81232B11F4FC01108281E001C080E016
:1018B000DF91CF911F910F910895CF92DF92EF9218
:1018C000FF920F931F93CF93DF9300D000D0CDB73B
:1018D000DEB78C01862F4AE09E012F5F3F4F6901E2
:1018E000B90190E00E94F71DF60101900020E9F790
:1018F0003197EC19FD09D8011496ED90FC901597DD
:101900003097B9F0EE0EFF1EB701C8010E94360CE9
:10191000882381F0F8012081318184819581B6018D
:10192000820F931F0E94841DD8011596FC92EE929F
:10193000149781E00F900F900F900F90DF91CF914F
:101940001F910F91FF90EF90DF90CF900895EF924D
:10195000FF920F931F93CF93DF9300D0CDB7DEB7E5
:101960008C0169831A82FC01E480F580FFEFEF1A95
:10197000FF0AB7010E94360C882381F0F80120810C
:10198000318184819581BE016F5F7F4F820F931FEC
:101990000E94841DF801F582E48281E00F900F908F
:1019A000DF91CF911F910F91FF90EF900895EF92EB
:1019B000FF920F931F93CF93DF93EC018B0161157F
:1019C000710551F0CB010E94EE1D7C01BC01CE01DE
:1019D0000E94360C811104C0CE010E94070B07C083
:1019E000FD82EC82B801888199810E94E71DCE01B9
:1019F000DF91CF911F910F91FF90EF900895EF929B
:101A0000FF920F931F93CF93DF93EC0119821882FB
:101A10001B821A821D821C826115710521F18B01C6
:101A2000FB0101900020E9F731977F01E61AF70AE0
:101A3000B7010E94360C811109C0CE01DF91CF9110
:101A40001F910F91FF90EF900C94070BFD82EC8299
:101A5000B80188819981DF91CF911F910F91FF90FB
:101A6000EF900C94841DDF91CF911F910F91FF9007
:101A7000EF9008951F920F920FB60F9211242F939B
:101A80003F934F935F936F937F938F939F93AF9306
:101A9000BF93EF93FF9383E392E00E94F102FF91E3
:101AA000EF91BF91AF919F918F917F916F915F91D6
:101AB0004F913F912F910F900FBE0F901F9018954F
:101AC0001F920F920FB60F9211242F938F939F9313
:101AD000EF93FF93E0914302F09144028081E09103
:101AE0004902F0914A0282FD12C0908180914C021D
:101AF0008F5F8F7320914D02821751F0E0914C025D
:101B0000F0E0ED5CFD4F958F80934C0201C0808129
:101B1000FF91EF919F918F912F910F900FBE0F909A
:101B20001F901895FC018091DE05811103C08FEF95
:101B30009FEF08959FB7F89482E08093E900209189
:101B4000F20030E01216130614F421E030E0211503
:101B5000310559F0289884E68093DD058091F100E5
:101B600080838091F200882319F09FBFC9010895F6
:101B70008BE68093E800F9CFCF93DF931F92CDB728
:101B8000DEB76983DC01ED91FC910280F381E02DE9
:101B900041E050E0BE016F5F7F4F09950F90DF91EC
:101BA000CF91089583E08093E9008091F20088232B
:101BB00019F08AE38093E8000895CF93DF931F9292
:101BC000CDB7DEB7FC018485958597FD05C02FEF65
:101BD0003FEF358724870BC0CE0101960E94920DFE
:101BE000019719F4898190E002C08FEF9FEF0F9069
:101BF000DF91CF9108950F931F93CF93DF931F929F
:101C0000CDB7DEB78C01FC018485958597FF0EC0AA
:101C1000CE0101960E94920D019719F4298130E0BE
:101C200002C02FEF3FEFF80135872487F801848544
:101C300095850F90DF91CF911F910F910895FC0131
:101C40008485958597FD0BC09FB7F89482E08093BB
:101C5000E9008091F2009FBF90E0019608959FB740
:101C6000F89482E08093E9008091F2009FBF90E0B9
:101C700008958F929F92AF92BF92CF92DF92EF9290
:101C8000FF920F931F93CF93DF935C016B018A0147
:101C900080910701882309F45EC08091DE058823C6
:101CA00009F459C08091DC0580FF05C08091E000F7
:101CB00082608093E000E8018AEFF82E93E0E92E3D
:101CC0002FE3822E3AE3932E209709F43DC08FB77D
:101CD000F894E092E9009091E80095FF06C0909199
:101CE000F200282D291B922F01C090E08FBF911187
:101CF0000AC0FA94FF2079F161E070E080E090E0A2
:101D00000E948004E1CF292F30E0C217D3070CF4E2
:101D10009C2F8FB7F894E092E9002091E80025FF0E
:101D200011C0292F30E0C21BD30BF601915020F0D7
:101D300041914093F100FACFC20ED31E9091E8007A
:101D400095FF13C08FBFC0CF5D9884E68093DF05F9
:101D50001016110644F081E090E0F5019383828330
:101D600080E090E005C0C80103C09092E800EACF8F
:101D7000DF91CF911F910F91FF90EF90DF90CF9067
:101D8000BF90AF909F908F9008952F923F924F9267
:101D90005F926F927F928F929F92AF92BF92CF92FB
:101DA000DF92EF92FF920F931F93CF93DF93CDB704
:101DB000DEB72B970FB6F894DEBF0FBECDBF9B8763
:101DC0008A875B011901FD82EC823A01600E711E67
:101DD000872C7B82912C44244A94542C9B01240F01
:101DE000351F3F832E839101200F311F39872887AC
:101DF000EA85FB858085981608F036C1AA85BB85E3
:101E000014965C924E92139715968D919C9116970D
:101E1000DC01ED91FC910190F081E02D6FEF0995CF
:101E20006FEF8A859B850E946305EA85FB85858126
:101E30009681DC01ED91FC910190F081E02DAA8565
:101E4000BB856C910995EA85FB856081CF010E9475
:101E50006305AA85BB8515968D919C911697DC012B
:101E6000ED91FC910190F081E02D682D09956B8139
:101E70008A859B850E946305EA85FB85858196811D
:101E8000DC01ED91FC910190F081E02D662D09952A
:101E9000662D8A859B850E94630575012E813F8191
:101EA000E216F306B1F0EA85FB858581968187010C
:101EB000DC01ED91FC910190F081E02DD7016D9155
:101EC0007D010995F80160818A859B850E946305E3
:101ED000E5CF7101AA85BB8515968D919C911697CA
:101EE00028853985E216F30691F08701DC01ED9132
:101EF000FC910190F081E02DD7016D917D01099554
:101F0000F80160818A859B850E946305E3CFDC012F
:101F1000ED91FC91AA85BB8514966C910190F0819E
:101F2000E02D0995EA85FB8585819681DC01ED919F
:101F3000FC910190F081E02DAA85BB8513966C91F0
:101F4000099564E670E08A859B850E942C058F3F89
:101F5000910509F07DC0EA85FB85548243826FEFCD
:101F6000CF010E94630565E070E08A859B850E9431
:101F70002C05AA85BB856C91262F30E0821793072C
:101F800009F066C0CD010E9463056AE070E08A85B1
:101F90009B850E942C057C0197FD5AC0682F8A857D
:101FA0009B850E9463056AE070E08A859B850E949C
:101FB0002C058C0197FD4CC0682F8A859B850E945B
:101FC0006305EA821982E981FA810E0F1F1FE12C55
:101FD000F12C65E070E08A859B85E016F106A9F09A
:101FE000EC14FD0491F00E942C0597FD0AC0EC81D1
:101FF000FD81EE0DFF1D8083682F8A859B850E94E1
:102000006305FFEFEF1AFF0AE4CF0E942C057C0165
:1020100097FD1EC065E070E08A859B850E942C05B7
:1020200097FD16C0FE2CEE248E0D9F1DAA85BB8544
:1020300013962D913C9114972817390749F48C91E8
:102040008F5F8C93C801C016D10680F4C6010EC004
:10205000939464E670E080E090E00E9480048A85BA
:102060009B850E941005C4CE8FEF9FEF2B960FB675
:10207000F894DEBF0FBECDBFDF91CF911F910F91BE
:10208000FF90EF90DF90CF90BF90AF909F908F9098
:102090007F906F905F904F903F902F9008950F9397
:1020A0001F93CF93DF93EC010E94BA04688779876E
:1020B0008A879B87CE010E94C40697FF17C00E94A3
:1020C000BA04088519852A853B85DC01CB01801B74
:1020D000910BA20BB30B0C811D812E813F818017C8
:1020E0009107A207B30730F38FEF9FEFDF91CF91F6
:1020F0001F910F910895CF93DF93282F30E0F901BE
:10210000E659FE4F8491F901E55BFE4FD491F90148
:10211000E45DFE4FC491CC2399F081110E9412031B
:10212000EC2FF0E0EE0FFF1FE25EFE4FA591B491A1
:102130008FB7F8949C91ED2FE095E923EC938FBF36
:10214000DF91CF9108958091E40581110DC082E067
:102150008093E00584E08093E1051092E3051092FE
:10216000E20581E08093E40580EE95E008951F92FA
:102170000F920FB60F9211248F939F938091E100DD
:102180009091E100937F9093E10083FF0FC0109244
:10219000E90091E09093EB001092EC0092E39093B1
:1021A000ED001092DE0598E09093F00082FF20C0D1
:1021B00093E09093E9009091F200992319F09AE34B
:1021C0009093E8009091DF05992339F09091DF0515
:1021D00091509093DF05992389F19091DD05992322
:1021E00039F09091DD0591509093DD05992341F1EF
:1021F00084FF10C08091E2008E7E81608093E200B7
:102200008091E1008F7E8093E1008091DC058E7EDD
:10221000806111C080FF16C08091E2008E7E8061D7
:102220008093E2008091E1008E7E8093E1008091B6
:10223000DC058E7E81608093DC0504C05D9ACDCF85
:10224000289AD6CF9F918F910F900FBE0F901F901D
:1022500018954091F1055091F2052091EF053091CC
:10226000F00542175307B4F49091E8009570E1F33C
:102270009091E80092FD19C08093F1008091F105E2
:102280009091F20501968F739927892B19F48EEF9F
:102290008093E8008091F1059091F205019690936A
:1022A000F2058093F10581E0089580E00895DF92C2
:1022B000EF92FF920F931F93CF93DF93D82E8A0153
:1022C0007B01E40EF51EEB01CE15DF0571F0D7FEA4
:1022D00003C0FE01849101C088810E9429112196CA
:1022E0008111F2CF8FEF9FEF01C0C801DF91CF9135
:1022F0001F910F91FF90EF90DF900895615030F0A3
:102300002091F100FC0120830196F8CF289884E603
:102310008093DD0508950F931F93CF93DF931F9252
:10232000CDB7DEB782E0898342E450E069E871E02E
:1023300080E80E9457110E94A310DC0112960D91B3
:102340001C9113970115110569F0D801ED91FC91CD
:102350000280F381E02DBE016F5F7F4FC8010995B8
:1023600097FF07C089810F90DF91CF911F910F9147
:102370000895F80100851185E5CF1F920F920FB6E1
:102380000F921124CF92DF92EF92FF920F931F933F
:102390002F933F934F935F936F937F938F939F936D
:1023A000AF93BF93EF93FF93CF93DF93CDB7DEB798
:1023B0006C97DEBFCDBF1092E9008091E80083FFEB
:1023C000FAC168E0CE0145960E947E1182EF8093AB
:1023D000E8008D8987FF05C09091E80090FFFCCF51
:1023E00003C09EEF9093E800982F907609F0C6C046
:1023F0009E892F89188D91110CC0803829F4809105
:10240000ED058093F10002C01092F1001092F100EE
:1024100047C1422F50E0512B913051F4811140C1FE
:102420004130510509F03CC18091ED058D7F0BC015
:10243000933061F4811134C14130510509F030C14C
:102440008091ED0582608093ED052AC1953041F4BD
:102450008091E80080FFFCCF20682093E30020C13A
:10246000963009F05FC0EB8CFC8C1092E900109262
:10247000F2051092F105123091F51092F0051092CC
:10248000EF050E948B1199E0BE016F5F7F4FDB016A
:10249000E92F1D92EA95E9F799831A8391E09E83CB
:1024A00090EA98879AEF99872091F1053091F2058B
:1024B000275F3F4F3C832B838D831092E90010925E
:1024C000F2051092F105F092F005E092EF0549E077
:1024D00050E080E00E9457110E948B11E1C0F09201
:1024E000F005E092EF050E94A310DC011296ED903A
:1024F000FC901397E114F10409F4C0C0D701ED91E9
:10250000FC910480F581E02DBE016B5E7F4FC70119
:102510000995009719F00CF0C3C0C6C0F701E0841C
:10252000F184E8CF973009F4BFC0983021F481E0FE
:102530008093F100B5C0993009F0B2C0837009F002
:10254000B3C0E9E1F2E081E021E036E39081992334
:1025500061F08093E9002093EB0091919093EC005F
:102560003093ED008F5F873089F78EE78093EA0024
:102570001092EA008F898093DE0592C08B8D9C8D2E
:102580001092E9001092F2051092F1059093F00577
:102590008093EF05898D811156C08E899D89913A6E
:1025A00059F4813209F080C047E050E060E071E00A
:1025B00080E00E94571174C0913209F075C08332D7
:1025C00089F4888D90E0982F88272F89822BA0E0AE
:1025D000B0E08093080190930901A0930A01B093A1
:1025E0000B015EC0803269F48091E80082FFFCCF6D
:1025F00067E080E091E00E947E118BEF8093E8001D
:1026000006C0823209F04CC08F8980930701809107
:10261000EC05882319F0EEEFFAE002C0E0E0F8E004
:102620008091000190910101A0910201B0910301FC
:10263000803B9440A105B10509F088C08091070155
:1026400080FFA0C083C00E94A310DC0112960D91F0
:102650001C9113970115110539F1D801ED91FC91E9
:102660000190F081E02DBE016B5E7F4FC80109959E
:10267000811116C0F80100851185ECCF1130C1F031
:10268000133091F48F89882309F455C08230E9F41E
:1026900040E86BE08BED91E00E94181B882321F04D
:1026A0008EEF8093E80087C081E28093EB0083C0C7
:1026B0008B8D9C8D089711F41093EE058091EE059B
:1026C000811136C067EE71E038C0813029F440E8EE
:1026D0006BE08FEC91E0E0CF833031F70E94A310E4
:1026E000DC011296ED90FC9013978E010F5F1F4F47
:1026F0006801E114F10479F0D701ED91FC910680B5
:10270000F781E02DB801C7010995080F111DF701E8
:10271000E084F184EECFD8011C92F60101900020F4
:10272000E9F73197BF016C197D0940E0C601B4CFCC
:1027300069EF71E002C06BEC71E06115710509F49D
:10274000B3CFFB01449150E080E833CF0FB6F8944B
:10275000A89580916000886180936000109260006D
:102760000FBEA895EE3F2AE0F20739F08091FE0AED
:102770009091FF0A9183808393CF1092FF0A109269
:10278000FE0A8ECFEE3F8AE0F80731F0808191811A
:102790009093FF0A8093FE0A87E797E791838083EF
:1027A0009BE088E10FB6F894A895809360000FBE77
:1027B0009093600075CF6C960FB6F894DEBF0FBE95
:1027C000CDBFDF91CF91FF91EF91BF91AF919F91DD
:1027D0008F917F916F915F914F913F912F911F91B9
:1027E0000F91FF90EF90DF90CF900F900FBE0F9062
:1027F0001F901895CF92DF92EF920F931F93CF9374
:10280000DF931092DE021092DD0248EE53E060E0AA
:1028100070E04093DF025093E0026093E102709316
:10282000E2028AE191E09093DC028093DB02CFEF39
:10283000DFEFD093E802C093E70284ED91E090933C
:102840002C0380932B0310922D0310922E031092D1
:102850002F031092300323E332E0109236021092DD
:1028600035024093370250933802609339027093D7
:102870003A024AE251E050933402409333024DEC65
:1028800050E05093400240933F024CEC50E0509394
:1028900042024093410248EC50E05093440240937E
:1028A000430249EC50E050934602409345024AEC03
:1028B00050E050934802409347024EEC50E0509352
:1028C0004A024093490210924C0210924D0210921B
:1028D0004E0210924F029093320380933103109274
:1028E0003303109234031092350310923603909301
:1028F0003803809337031092390310923A031092F1
:102900003B0310923C031092D0023093D6022093E6
:10291000D5021092D7021092D8023093DA02209397
:10292000D9029093D7058093D6051092D8051092BE
:10293000D9051092DA051092DB058FEF8093D1054F
:102940008093D2058093D30590E49093D40590931F
:10295000D5058093CC051092CD051092CE059093AD
:10296000CF059093D0051092C7051092C80510921C
:10297000C90590E29093CA059093CB058093C20558
:102980008093C3058093C4059093C5059093C605B5
:102990008093BD051092BE051092BF059093C005AF
:1029A0009093C1051092B6051092B5058AE491E0A6
:1029B0009093B4058093B30580ED92E09093B805B1
:1029C0008093B70583EB95E19093BA058093B905A1
:1029D0001092BB051092BC0510929A051092A005AA
:1029E0001092A2051092A1051092A7051092A805B9
:1029F0001092A9051092AA0581E08093A605809304
:102A0000A3051092A40592E09093A50580939905E3
:102A100060E070E089E995E00E94230A6FEF89E9A0
:102A200095E00E94F209D093AF05C093AE05D09314
:102A3000B105C093B0051092B20561E670E089E976
:102A400095E00E94230A6CE089E995E00E94F20972
:102A50008091AE059091AF0588309105B1F097FD5A
:102A600007C060E00E9444048091AE050E947B1084
:102A700088E090E09093AF058093AE0560E00E94FF
:102A800044048091AE050E947B101092B105109213
:102A9000B0056091A005603821F12091A105309129
:102AA000A205615031F070E08FEF9FE70E94551B47
:102AB00002C060E070E0F90140919D0550919E05D3
:102AC000CF01821B930B8417950740F44081469FEA
:102AD000C001479F900D11249193EECF80E8809321
:102AE000A00529E935E0309392052093910584E310
:102AF00090E090939405809393054DE250E05093BD
:102B0000960540939505109297051092980530937D
:102B10008A052093890510928C0510928B0590935D
:102B20008E0580938D058DE180938F051092900521
:102B3000E12C0FE615E021ED35E04CEC55E061E9C4
:102B400075E084E795E00E94620AC0E1D2E0D0938C
:102B50007505C0937405109288052CEC35E041EDA5
:102B600055E061E975E08AE595E00E94620AD0933C
:102B70005B05C0935A0510926E05980147EC55E02D
:102B800069E875E085E495E00E94620A88EFC82E46
:102B900081E0D82ED0924605C09245051092590585
:102BA000980142EC55E069E875E080E395E00E9409
:102BB000620AD0923105C092300510924405980106
:102BC0004DEB55E069E875E08BE195E00E94620A03
:102BD000D0921C05C0921B0510922F0522EC35E007
:102BE00047EC55E069E875E086E095E00E94620AEE
:102BF000D0930705C093060510921A052DEB35E01A
:102C000042EC55E069E875E081EF94E00E94620AC9
:102C1000D093F204C093F1041092050527EC35E03F
:102C20004DEB55E069E875E08CED94E00E94620A96
:102C3000D093DD04C093DC041092F0042DEB35E05A
:102C400047EC55E069E875E087EC94E00E94620A81
:102C5000D093C804C093C7041092DB0422EC35E083
:102C60004DEB55E069E875E082EB94E00E94620A62
:102C7000D093B304C093B2041092C60427EC35E09D
:102C800042EC55E069E875E08DE994E00E94620A43
:102C9000D0939E04C0939D041092B104EE24E3945B
:102CA00007EC15E022EC35E0A80169E875E087E85B
:102CB00094E00E94620ACCEED1E0D0938804C093E5
:102CC000870410929C0410929B042DEB35E042EC9B
:102CD00055E069E875E081E794E00E94620AD093CC
:102CE0007204C093710410928604109285049801B6
:102CF0004DEB55E069E875E08BE594E00E94620ACF
:102D0000D0935C04C0935B041092700410926F0423
:102D1000E12C0FE615E02DEB35E047EC55E069E8D6
:102D200075E085E494E00E94620AD0934604C09363
:102D3000450410925A041092590422EC35E04DEBF0
:102D400055E069E875E08FE294E00E94620AD09352
:102D50003004C0932F04109244041092430427ECD3
:102D600035E042EC55E069E875E089E194E00E94C5
:102D7000620AD0931A04C093190410922E04109280
:102D80002D0422EC35E047EC55E069E875E08DEF65
:102D900093E00E94A40A2DEB35E042EC55E069E88F
:102DA00075E081EE93E00E94A40A27EC35E04DEB3C
:102DB00055E069E875E085EC93E00E94A40A2DEBEC
:102DC00035E047EC55E069E875E089EA93E00E9458
:102DD000A40A22EC35E04DEB55E069E875E08DE89A
:102DE00093E00E94A40A27EC35E042EC55E069E844
:102DF00075E081E793E00E94A40A84ED91E090934E
:102E00003E0380933D0310923F03109240031092C3
:102E100041031092420310926F05109270051092B8
:102E2000710510927205109273058FEF80936C03F9
:102E300080936D0380936E0310926F031092700362
:102E400080936703109268031092690310926A03DB
:102E500010926B03109262038093630310926403D9
:102E6000109265031092660310925D0310925E0348
:102E700080935F0310926003109261038093580364
:102E800098E59093590390E590935A0310925B0351
:102E900010925C039BE5909353039DEB9093540336
:102EA0009FED909355031092560310925703809311
:102EB0004E0388E880934F0380E88093500310927C
:102EC00051031092520384E28093490385EC80936E
:102ED0004A0387E580934B0310924C0310924D03F5
:102EE000DF91CF911F910F91EF90DF90CF900895D8
:102EF000CF93DF93CDB7DEB7C256D1090FB6F894A2
:102F0000DEBF0FBECDBF789484B5826084BD84B52A
:102F1000816084BD85B5826085BD85B5816085BDD4
:102F200080916E00816080936E001092810080918C
:102F30008100826080938100809181008160809314
:102F40008100809180008160809380008091910059
:102F500082608093910080919100816080939100C4
:102F6000809190008160809390008091C100846086
:102F70008093C1008091C10082608093C1008091E4
:102F8000C10081608093C1008091C3008160809303
:102F9000C3008091C00082608093C0008091C20015
:102FA00081608093C20080917A00846080937A006F
:102FB00080917A00826080937A0080917A008160AB
:102FC00080937A0080917A00806880937A001092D2
:102FD000DE051092ED051092DC058091D70081602E
:102FE0008093D70080EA8093D80089B5806189BD3D
:102FF00089B5826089BD09B400FEFDCF61E070E053
:1030000080E090E00E9480048091D8008F7C8061F5
:103010008093D8008091E000807F8093E0008091D1
:10302000E1008E7E8093E1008DE08093E200559A6E
:10303000209AEEEFFFE7859194918B3F9C4D19F418
:1030400081E08093EC05E091D902F091DA02A08949
:10305000B18982E08C93A485B5851C92A685B7853D
:1030600087E08C93108EA489B58986E08C93A28921
:10307000B3898C9180618C93A289B3898C9188608B
:103080008C93A289B3898C9180688C930288F38990
:10309000E02D80818F7D80838091D7028111CDC00A
:1030A00081E08093D70280ED92E00E94100568EEE7
:1030B00073E080E090E00E9480048091D5029091BE
:1030C000D602DC01ED91FC910480F581E02D09959B
:1030D0001816190644F315E0F12EEE24E39402E3EA
:1030E000D02EE8E5F1E0DE01AD5ABF4F8F2D019003
:1030F0000D928A95E1F7E092D80245E050E0BE01DA
:103100006D5A7F4F80ED92E00E94E6068091D502D5
:103110009091D602DC01ED91FC910190F081E02DBF
:1031200063E009956AEF70E080E090E00E9480041F
:1031300066E071E08091D5029091D6020E94B80AB3
:103140006AEF70E080E090E00E94800464E071E04B
:103150008091D5029091D6020E94B80A64EF71E086
:1031600080E090E00E94800468EF70E08091D502DA
:103170009091D6020E94B80A64EF71E080E090E07E
:103180000E94800480ED92E00E941005EDE5F1E0E0
:10319000DE0111968F2D01900D928A95E1F7D09264
:1031A000D80204E010E09E01275A3F4F45E050E06E
:1031B000BE016F5F7F4F80ED92E00E947A058F3FE6
:1031C000BFEF9B0739F468EE73E080E090E00E9467
:1031D000800487CF6A962FAD6A972111FFCF04979D
:1031E00019F56B962FAD6B9730E02053310984E6CB
:1031F000829FA001839F500D11246C962FAD6C9778
:1032000030E0205331096AE0629FC001639F900D56
:103210001124840F951F6D962FAD6D9730E02053CC
:103220003109820F931F02C084E690E09093D2028E
:103230008093D10282E38093D80281E08093BC0521
:1032400083EB95E00E942B026091A005613F21F184
:103250002091A1053091A205615031F070E08FEF0F
:1032600090EF0E94551B02C060E070E0F9014091B0
:103270009D0550919E05CF01821B930B84179507E6
:1032800040F44081469FC001479F900D11249193C7
:10329000EECF81EF8093A00580919F0587FD07C049
:1032A00061E00E94440480919F050E947B1081E0B0
:1032B00080939A0540919D0550919E0560E070E0D5
:1032C0008091A1059091A2050E94741D8091A10595
:1032D0009091A205892B21F089E995E00E94510780
:1032E000EBE62E2EF8EE4F2EF3E05F2E612C712CC4
:1032F000A6E6CA2EA1E0DA2EB0EDAB2EB2E0BB2ED0
:1033000033243394E0914703F0914803EE0FFF1FFD
:10331000E653FE4FE080F180E0914503F0914603D3
:10332000EE0FFF1FE058FE4F00811181E114F10400
:1033300051F410924803109247031092440354E74B
:10334000E52E55E0F52E80914403811108C0D70188
:10335000ED91FC910480F581E02DC7010995D7011D
:10336000ED91FC910680F781E02DC70109958093CE
:103370004403811109C0809147039091480301964D
:1033800090934803809347030115110541F410926F
:103390004603109245031092430306E015E0809126
:1033A0004303811108C0D801ED91FC910480F5819F
:1033B000E02DC8010995D801ED91FC910680F781B7
:1033C000E02DC801099580934303811109C08091C4
:1033D00045039091460301969093460380934503DD
:1033E0006A962FAE6A9701E010E09E012D5A3F4F7A
:1033F00041E050E0BE01675A7F4F8091B705909140
:10340000B8050E947A05892B69F41C821B824D82C3
:103410005E826F827886DA82C982BE86AD861F861A
:10342000188A0FC064968FAD64971C821B824D82F0
:103430005E826F827886DA82C982BE86AD868F8789
:10344000388A198A8889882309F46AC068E272E098
:10345000CE01875A9F4F0E94FF0CCE0101960E9419
:103460004F1097FD0AC08F32910539F0682FCE01B9
:10347000875A9F4F0E94A70CF0CF6F968EAD9FADDD
:103480006F97892BB9F16FE172E06B968EAD9FADAE
:103490006B970E947B1D892B69F568E272E0CE0173
:1034A0008D5A9F4F0E94FF0CCE0101960E944F1033
:1034B00097FD07C0682FCE018D5A9F4F0E94A70C21
:1034C000F3CF69964EAD5FAD699765966EAD7FADF2
:1034D0006597CE0101960E94F50166E272E0CE0189
:1034E00001960E94250B65968EAD9FAD65970E9453
:1034F000041C0CC068E071E0CE0101960E94B80A7D
:1035000066E272E0CE0101960E94250BCE01019683
:103510000E942D076B968EAD9FAD6B970E94041C89
:103520008091B0059091B10597FD69C00E94BA04E1
:10353000A3966CAF7DAF8EAF9FAFA39700E010E076
:10354000E12C44E0F42E0E94BA04DC01CB01A396E6
:103550002CAD3DAD4EAD5FADA397821B930BA40B7D
:10356000B50B8897A105B10508F03CC0E091B00506
:10357000E23108F0E251F0E0EE5EFE4FE49120917E
:103580007B00E3FB882480F8912CC40135E0880F90
:10359000991F3A95E1F7922F9F7D892B80937B00AD
:1035A000E770E064E0937C0080917A00806480930F
:1035B0007A0080917A0086FDFCCF8091780020917E
:1035C000790090E0922B8115B4E09B0708F0BBCF07
:1035D0000817190708F48C018E159F0508F0B3CF62
:1035E0007C01B1CF011532E0130710F00FEF11E0AD
:1035F0000E191F09169507950093B20506C068E2DB
:1036000070E080E090E00E9480040E9460017ACE29
:103610008091A1059091A205009711F00E94041CD1
:1036200080919F0587FD03C060E00C9444040895D9
:10363000CF92DF92EF92FF920F931F93CF93DF937E
:103640001F92CDB7DEB7182F062FE42E862F880FD6
:103650008E5F99830E94291183E00E942911F12E27
:10366000C12E9981D92E8C2D8F19801798F4F601CF
:10367000E7FE02C0849101C080810E942911182FA9
:1036800080E00E9429118123FFEFCF1ADF0A811108
:10369000EACF01C081E00F90DF91CF911F910F9190
:1036A000FF90EF90DF90CF900895AA1BBB1B51E1D4
:1036B00007C0AA1FBB1FA617B70710F0A61BB70BA2
:1036C000881F991F5A95A9F780959095BC01CD0147
:1036D0000895EE0FFF1F0590F491E02D0994CF930C
:1036E000DF938230910510F482E090E0E091F505DF
:1036F000F091F60520E030E0C0E0D0E0309711F125
:103700004081518148175907C0F04817590761F4A3
:1037100082819381209719F09B838A832BC0909399
:10372000F6058093F50526C02115310519F04217DD
:10373000530718F49A01BE01DF01EF010280F38103
:10374000E02DDCCF2115310509F1281B390B243080
:10375000310590F412968D919C9113976115710526
:1037600021F0FB019383828304C09093F60580933C
:10377000F505FD01329644C0FD01E20FF31F819370
:103780009193225031092D933C933AC02091F30537
:103790003091F405232B41F420910E0130910F015B
:1037A0003093F4052093F30520910C0130910D0125
:1037B0002115310541F42DB73EB7409110015091CC
:1037C0001101241B350BE091F305F091F405E2178C
:1037D000F307A0F42E1B3F0B2817390778F0AC0134
:1037E0004E5F5F4F2417350748F04E0F5F1F509311
:1037F000F4054093F3058193919302C0E0E0F0E07B
:10380000CF01DF91CF9108950F931F93CF93DF9353
:10381000009709F48CC0FC01329713821282009148
:10382000F5051091F6050115110581F4208131810E
:10383000820F931F2091F3053091F4052817390763
:1038400079F5F093F405E093F30571C0D80140E0F9
:1038500050E0AE17BF0750F412962D913C9113978C
:10386000AD012115310509F1D901F3CF9D01DA012F
:103870003383228360817181860F971F821793079C
:1038800069F4EC0128813981260F371F2E5F3F4FE5
:10389000318320838A819B8193838283452B29F402
:1038A000F093F605E093F50542C01396FC93EE9372
:1038B0001297ED01499159919E01240F351FE2178E
:1038C000F30771F480819181840F951F0296119600
:1038D0009C938E938281938113969C938E931297DF
:1038E000E0E0F0E0D80112968D919C91139700973B
:1038F00019F0F8018C01F6CF8D919C9198012E5F03
:103900003F4F820F931F2091F3053091F405281744
:10391000390769F4309729F41092F6051092F505ED
:1039200002C0138212821093F4050093F305DF9115
:10393000CF911F910F910895A0E0B0E0E2EAFCE181
:103940000C94621EEC01009721F4CB010E946F1BC6
:10395000B8C0FC01E60FF71F9C0122503109E217A5
:10396000F30708F4ACC0D9010D911C91119706170B
:103970001707B0F00530110508F49FC0C80104977F
:103980008617970708F499C002501109061B170BF8
:10399000019311936D937C93CF010E94041C8DC001
:1039A0005B01A01AB10A4C01800E911EA091F50591
:1039B000B091F60540E050E0E12CF12C109709F4AD
:1039C0004AC0A815B905D1F56D907C901197630197
:1039D00082E0C80ED11CCA14DB0480F1A3014A198D
:1039E0005B096A0182E0C80ED11C1296BC90129746
:1039F0001396AC91B5E0CB16D10440F0B282A3830C
:103A000051834083D9016D937C930AC00E5F1F4F91
:103A1000C301800F911FF90191838083EB2DFA2F51
:103A2000E114F10431F0D7011396FC93EE93129751
:103A300044C0F093F605E093F5053FC08D919C914D
:103A400011974817590708F4AC017D0112960D90A3
:103A5000BC91A02DB3CF8091F3059091F40588150A
:103A60009905E1F446175707C8F480910C0190912D
:103A70000D01009741F48DB79EB740911001509110
:103A80001101841B950BE817F907C8F4F093F405AE
:103A9000E093F305F901718360830FC0CB010E94AD
:103AA0006F1B7C01009759F0A801BE010E946B1D9D
:103AB000CE010E94041CC70104C0CE0102C080E0F8
:103AC00090E0CDB7DEB7EEE00C947E1E81E090E092
:103AD000F8940C94C61EFB01DC0102C001900D920B
:103AE00041505040D8F70895DC0101C06D9341501A
:103AF0005040E0F70895FB01DC018D9101908019A1
:103B00000110D9F3990B0895FB01DC0101900D928E
:103B10000020E1F708958F929F92AF92BF92CF92CB
:103B2000DF92EF92FF92CF93DF93EC01688179816E
:103B30008A819B81611571058105910521F464E2FB
:103B400079ED8BE597E02DE133EF41E050E00E9405
:103B50002C1E49015A019B01AC01A7EAB1E40E9465
:103B60004B1E6B017C01ACEEB4EFA50194010E94E9
:103B7000591EDC01CB018C0D9D1DAE1DBF1DB7FF75
:103B800003C00197A109B04888839983AA83BB83A6
:103B9000BC01CD019F77DF91CF91FF90EF90DF9037
:103BA000CF90BF90AF909F908F9008950E948B1DF3
:103BB000089582E191E00E948B1D089560931201A7
:103BC0007093130180931401909315010895FB01E4
:103BD000DC0105900D920020E1F70895FC010590AD
:103BE0000020E9F7809590958E0F9F1F0895BB27C1
:103BF0004A3031F4992322F4BDE2909581959F4F8C
:103C00000C94031EBB27FB015527AA27880F991F79
:103C1000AA1FA41710F0A41B83955051B9F7A05DFB
:103C2000AA3308F0A95DA193009779F7B111B19378
:103C30001192CB010C941C1EDC01FC01672F7191C9
:103C40007723E1F7329704C07C916D937083629182
:103C5000AE17BF07C8F30895052E97FB1EF4009416
:103C60000E94431E57FD07D00E94951E07FC03D0FB
:103C70004EF40C94431E50954095309521953F4F3E
:103C80004F4F5F4F089590958095709561957F4F48
:103C90008F4F9F4F08950E94B71EA59F900DB49F10
:103CA000900DA49F800D911D11240895B7FF0C94D1
:103CB0004B1E0E944B1E821B930B08952F923F9226
:103CC0004F925F926F927F928F929F92AF92BF922C
:103CD000CF92DF92EF92FF920F931F93CF93DF93D8
:103CE000CDB7DEB7CA1BDB0B0FB6F894DEBF0FBE35
:103CF000CDBF09942A88398848885F846E847D8482
:103D00008C849B84AA84B984C884DF80EE80FD8083
:103D10000C811B81AA81B981CE0FD11D0FB6F894F9
:103D2000DEBF0FBECDBFED010895A1E21A2EAA1B82
:103D3000BB1BFD010DC0AA1FBB1FEE1FFF1FA2175B
:103D4000B307E407F50720F0A21BB30BE40BF50B58
:103D5000661F771F881F991F1A9469F760957095E1
:103D6000809590959B01AC01BD01CF010895A29F64
:103D7000B001B39FC001A39F700D811D1124911D3F
:103D8000B29F700D811D1124911D089511E0C7E0AF
:103D9000D1E004C0FE010E94691B2196C830D10702
:063DA000C9F7F894FFCF03
:103DA60000E1000000000000FFFFFFFF0000F70534
:103DB60080000100000000000000BC0D390E1F0E3F
:103DC600DD0DFB0DD20D00000000CD0BDC0A540109
:103DD60032014601140C00000000230BDC0A230B01
:103DE600230B230B230B00000000F106DC0A2B0239
:103DF60000000000230BDC0A585858585858583110
:103E06003030000000000A07F501DC06C4067E0615
:103E16008F018B028F0591062D07110699019001DE
:103E260006053005F1041B05DC04450545041B05A4
:103E36002F04300519044505FD033005E1031B0574
:103E4600C5034505C7041B05B20430059D04450599
:103E56008704300571041B055B044505A9031B0592
:103E66008D03300571034505000074055A050000F1
:103E760000000000830B00000000230B0000000080
:103E86005D0AEB019C011F08000000005F0AED01BE
:103E9600A401D40800000000610AF101CA01AF09BB
:103EA600000000005E0AF301CF01CD010000000012
:103EB600600AEF01C701220900C18081000000638A
:0A3EC6006F6C6F7273000D0A0000AC
:00000001FF
