:100000000C94F2000C941A010C941A010C941A012D
:100010000C941A010C941A010C941A010C941A01F4
:100020000C941A010C941A010C9461070C94D307D8
:100030000C941A010C941A010C941A010C941A01D4
:100040000C941A010C941A010C941A010C941A01C4
:100050000C941A010C941A010C941A010C94BF020E
:100060000C941A010C941A010C941A010C941A01A4
:100070000C941A010C941A010C941A010C941A0194
:100080000C941A010C941A010C941A010C941A0184
:100090000C941A010C941A010C941A010C941A0174
:1000A0000C941A010C941A010C941A0124022702D0
:1000B00016021A0220024802480248022B022F02AE
:1000C000330239023D0248024302000000002300CF
:1000D000260029002C002F0000000000240027002B
:1000E0002A002D003000070605040100080A0B0C49
:1000F0000D0900000000250028002B002E00310013
:1001000004040404040304050202020204030202BC
:10011000020206060606060604040202020404049D
:1001200008020110408040102040804080080204F6
:10013000018040201002011080102040402000006B
:10014000000200090F0000030401000C0000000081
:1001500000000000000000000000000000080B008C
:10016000020202010009040000010202000005244D
:1001700000100105240101010424020605240600E3
:10018000010705810310004009040100020A000074
:10019000000705020240000007058302400000043A
:1001A00003090441726475696E6F204C4C43004131
:1001B000726475696E6F2059756E0012010002003D
:1001C00000004041234180000101020301120100AF
:1001D00002EF0201404123418000010102030100BE
:1001E0007D0C560E11241FBECFEFDAE0DEBFCDBF6F
:1001F00011E0A0E0B1E0ECE8FFE102C005900D9253
:10020000A035B107D9F722E0A0E5B1E001C01D9209
:10021000A938B207E1F710E0C1EFD0E004C02197A0
:10022000FE010E947A0EC03FD107C9F70E94100A52
:100230000C94B90F0C9400003FB7F89480915101D1
:1002400090915201A0915301B091540126B5A89B01
:1002500005C02F3F19F00196A11DB11D3FBFBA2F58
:10026000A92F982F8827820F911DA11DB11DBC01B8
:10027000CD0142E0660F771F881F991F4A95D1F77D
:100280000895CF92DF92EF92FF920F931F93CF9337
:10029000DF93CDB7DEB729970FB6F894DEBF0FBE58
:1002A000CDBF8C010E941C01D8011E96CD90DD901F
:1002B000ED90FC905197DC01CB018C199D09AE09A2
:1002C000BF09C297A105B10568F3F894F8018481CC
:1002D00095819A8389830084F185E02D7F018FEFDA
:1002E000E81AF80A80818B83D8019C915296ED918F
:1002F000FC91539754968C91992309F430C09081C6
:10030000982B9C839081809589238D838D818E830A
:1003100088E08F835C816D814B813F812E81898153
:100320009A81D701508347FD252F3A952083262FA8
:1003300039F0441F00C000006083000000C0F2CF0D
:1003400038E04D9160830000019761F7D801539622
:10035000FC93EE9352974B833F832E833AC0908158
:10036000982B9C839081809589238D838D818887AC
:1003700088E089875C816D814B81398528858981F9
:100380009A81D701508347FD252F00C000C02083EC
:1003900000C000C000C000C000C060830000262F65
:1003A0003A9541F0441F000000C000C000C000C0EA
:1003B00000C0E8CF38E04D9100C0608300C00197D5
:1003C00009F7D8015396FC93EE9352974B833987E4
:1003D00028879A83898378940E941C01F801668794
:1003E0007787808B918B29960FB6F894DEBF0FBE6E
:1003F000CDBFDF91CF911F910F91FF90EF90DF90D4
:10040000CF900895FC01158A089580E0089508951D
:100410000C94150F0C94150F90E0FC013197EF3000
:10042000F105B0F5EA5AFF4F0C947A0E80918000E6
:100430008F7703C0809180008F7D80938000089526
:1004400080918000877FF9CF84B58F7702C084B513
:100450008F7D84BD0895809190008F7707C0809133
:1004600090008F7D03C080919000877F80939000E3
:1004700008958091C0008F7703C08091C0008F7D68
:100480008093C00008958091C200877F8093C2004E
:100490000895CF93DF9390E0FC01E15EFE4F24913D
:1004A000FC01E050FF4F8491882361F190E0880FB8
:1004B000991FFC01E852FF4FC591D491FC01EE5009
:1004C000FF4FA591B491611109C09FB7F89488813D
:1004D000209582238883EC912E230BC0623061F437
:1004E0009FB7F8943881822F809583238883EC917D
:1004F0002E2B2C939FBF06C08FB7F894E8812E2B2C
:1005000028838FBFDF91CF9108958F929F92AF92F2
:10051000BF92CF92DF92EF92FF926B017C010E941B
:100520001C014B015C01C114D104E104F104F1F0A0
:100530000E941C01DC01CB0188199909AA09BB0999
:10054000883E9340A105B10570F321E0C21AD1089D
:10055000E108F10888EE880E83E0981EA11CB11C0A
:10056000C114D104E104F10419F7DDCFFF90EF903D
:10057000DF90CF90BF90AF909F908F9008951F9283
:100580000F920FB60F9211242F933F938F939F9347
:10059000AF93BF938091550190915601A09157015F
:1005A000B09158013091500123E0230F2D3720F4F2
:1005B0000196A11DB11D05C026E8230F0296A11DBD
:1005C000B11D209350018093550190935601A09343
:1005D0005701B09358018091510190915201A0911F
:1005E0005301B09154010196A11DB11D8093510199
:1005F00090935201A0935301B0935401BF91AF91D6
:100600009F918F913F912F910F900FBE0F901F9050
:1006100018951F93CF93DF93EC01162F89818823C0
:1006200031F08E8187FD03C060E00E9449021E8385
:100630008981882339F061E0812F0E944902812F4E
:100640000E94EA05812F90E0FC01E050FF4FE49109
:10065000F0E0EE0FFF1FEE50FF4F259134913B8BE2
:100660002A8BFC01E15EFE4FE491EC8BDF91CF9190
:100670001F910895EF92FF920F931F93CF93DF93F3
:10068000EC017B0188859985009711F00E94150F78
:100690009D858A85981719F084E090E002C083E078
:1006A00090E08E9D80018F9D100D9E9D100D112458
:1006B0001D830C83C8010E94800E9987888700974C
:1006C00041F0A80160E070E00E94B20FFB82EA8274
:1006D00004C01D821C821B821A82DF91CF911F9160
:1006E0000F91FF90EF90089508950895FC01DB01AC
:1006F0008C91808311968C911197818312968C91A5
:100700001297828313968C911397838314968C91FE
:10071000848308954F925F926F927F928F929F92FF
:10072000AF92BF92CF92DF92EF92FF920F931F93FF
:10073000CF93DF93CDB7DEB72A970FB6F894DEBF1D
:100740000FBECDBF8C017B016CE572E0CE01069639
:100750000E947603F80185898F3F09F408C19385CB
:1007600020E031E0281B31096681629FA001639F70
:10077000500D1124989F400D511D11245E839485C6
:100780006781629FA001639F500D1124989F400DC7
:10079000511D11245F8395856085629FA001639F31
:1007A000500D1124989F400D511D11245887968596
:1007B0006185629FA001639F500D1124989F400D99
:1007C000511D1124598797856285629FA001639FFF
:1007D000500D11249A01989F200D311D1124C9013B
:1007E0009A87E114F10409F4BCC06280738063014C
:1007F000CC0CDD1CC60CD71C4301880C991C880C42
:10080000991CA12CBB24B394F801248135818281E9
:100810009381820F931F6816790608F09AC0BE0173
:100820006A5F7F4FCE0101960E947603F70125890A
:10083000368937FD1EC03327F901E25CFE4F8491F3
:10084000F901E15EFE4F5490F901E050FF4F4490F2
:10085000442079F081110E940C02E42DF0E0EE0FAB
:10086000FF1FE653FF4FA591B491EC915E2291E0FA
:1008700009F490E08C8169813A812B8118164CF43F
:10088000911123C0880F8F5FA501481B5109CA0130
:100890000AC08823D1F09923C1F0880F8095F50113
:1008A000E81BF109CF01689FA001699F500D112439
:1008B0005983389FA001399F500D11245A83289FD6
:1008C000A001299F500D11245B834B812A8139811E
:1008D000F701828193816816790688F587818823DC
:1008E00061F0389FB0011124372F289FB0011124E7
:1008F000272F489FC0011124492FF7015585628594
:1009000080859185561303C08C0D9D1D06C0880DF2
:10091000991DFC01E50FF11D1082F7015285FC01C4
:10092000E50FF11D3083F7013385FC01E30FF11D65
:100930002083F7012485FC01E20FF11D4083FFEFC6
:100940006F1A7F0A23E0C20ED11C34E0830E911C83
:100950005BCFF70180859185892B19F0C7010E9433
:100960004101F80185898F5F858B81E001C080E0BE
:100970002A960FB6F894DEBF0FBECDBFDF91CF91A0
:100980001F910F91FF90EF90DF90CF90BF90AF90AD
:100990009F908F907F906F905F904F9008956F928F
:1009A0007F928F929F92AF92BF92CF92DF92EF92FF
:1009B000FF920F931F93CF93DF93CDB7DEB72F979F
:1009C0000FB6F894DEBF0FBECDBF6C014B015A01CC
:1009D0003901B701CE010B960E947603B801CE0112
:1009E00006960E947603B301CE0101960E9476031B
:1009F0008BE391E0F6019183808393828282B582BA
:100A0000A482BE016F5F7F4FC60106960E947603E7
:100A1000BE016A5F7F4FC6010B960E947603BE013E
:100A2000655F7F4FC60140960E94760387E491E0A0
:100A3000F60191838083158A2F960FB6F894DEBF56
:100A40000FBECDBFDF91CF911F910F91FF90EF901F
:100A5000DF90CF90BF90AF909F908F907F906F90DE
:100A60000895CF92DF92EF92FF920F931F93CF934F
:100A7000DF936C017A018B01C0E0D0E0CE15DF0579
:100A800089F0D8016D918D01D601ED91FC91019015
:100A9000F081E02DC6010995892B11F47E0102C079
:100AA0002196ECCFC701DF91CF911F910F91FF905D
:100AB000EF90DF90CF9008950E94AD0F8F929F929C
:100AC000AF92BF92CF92DF92EF92FF920F931F935C
:100AD000CF93DF935C016B018A018091070188232A
:100AE00009F45EC080916201882309F459C08091A5
:100AF000600180FF05C08091E00082608093E0008B
:100B0000E8018AEFF82E93E0E92E2FE3822E3AE3F4
:100B1000932E209709F43DC08FB7F894E092E90036
:100B20009091E80095FF06C09091F200282D291BB6
:100B3000922F01C090E08FBF91110AC0FA94FF205C
:100B400079F161E070E080E090E00E948502E1CF01
:100B5000292F30E0C217D3070CF49C2F8FB7F894DD
:100B6000E092E9002091E80025FF11C0292F30E034
:100B7000C21BD30BF601915020F041914093F1003C
:100B8000FACFC20ED31E9091E80095FF13C08FBF1D
:100B9000C0CF5D9884E680935F011016110644F083
:100BA00081E090E0F5019383828380E090E005C0CE
:100BB000C80103C09092E800EACFDF91CF911F9166
:100BC0000F91FF90EF90DF90CF90BF90AF909F90EC
:100BD0008F900895CF93DF93282F30E0F901E25CE6
:100BE000FE4F8491F901E15EFE4FD491F901E0508E
:100BF000FF4FC491CC2399F081110E940C02EC2F7D
:100C0000F0E0EE0FFF1FEE50FF4FA591B4918FB7AC
:100C1000F8949C91ED2FE095E923EC938FBFDF9141
:100C2000CF910895FC0180916201811103C08FEF83
:100C30009FEF08959FB7F89482E08093E900209198
:100C4000F20030E01216130614F421E030E0211512
:100C5000310559F0289884E6809361018091F10074
:100C600080838091F200882319F09FBFC901089505
:100C70008BE68093E800F9CF8091670181110DC068
:100C800082E08093630184E08093640110926601A6
:100C90001092650181E08093670183E691E00895F9
:100CA000CF93DF931F92CDB7DEB76983DC01ED915F
:100CB000FC910280F381E02D41E050E0BE016F5FC6
:100CC0007F4F09950F90DF91CF91089583E0809336
:100CD000E9008091F200882319F08AE38093E8000C
:100CE0000895FC018485958597FD0BC09FB7F89406
:100CF00082E08093E9008091F2009FBF90E001962E
:100D000008959FB7F89482E08093E9008091F20003
:100D10009FBF90E008954091C4015091C50120917A
:100D2000C2013091C30142175307B4F49091E80017
:100D30009570E1F39091E80092FD19C08093F10065
:100D40008091C4019091C50101968F739927892BD9
:100D500019F48EEF8093E8008091C4019091C50151
:100D600001969093C5018093C40181E0089580E0CD
:100D70000895DF92EF92FF920F931F93CF93DF932B
:100D8000D82E8A017B01E40EF51EEB01CE15DF059E
:100D900071F0D7FE03C0FE01849101C088810E94DA
:100DA0008B0621968111F2CF8FEF9FEF01C0C80112
:100DB000DF91CF911F910F91FF90EF90DF900895F9
:100DC000615030F02091F100FC0120830196F8CFB2
:100DD000289884E6809361010895CF93DF931F9252
:100DE000CDB7DEB7FC018485958597FD05C02FEF53
:100DF0003FEF358724870BC0CE0101960E94120673
:100E0000019719F4898190E002C08FEF9FEF0F9056
:100E1000DF91CF9108950F931F93CF93DF931F928C
:100E2000CDB7DEB78C01FC018485958597FF0EC098
:100E3000CE0101960E941206019719F4298130E033
:100E400002C02FEF3FEFF80135872487F801848532
:100E500095850F90DF91CF911F910F9108950F937A
:100E60001F93CF93DF931F92CDB7DEB782E08983C4
:100E700042E450E06DE571E080E80E94B9060E940E
:100E80003C06DC0112960D911C911397011511057A
:100E900069F0D801ED91FC910280F381E02DBE0153
:100EA0006F5F7F4FC801099597FF07C089810F9039
:100EB000DF91CF911F910F910895F8010085118561
:100EC000E5CF1F920F920FB60F9211248F939F932D
:100ED0008091E1009091E100937F9093E10083FF86
:100EE0000FC01092E90091E09093EB001092EC009B
:100EF00092E39093ED001092620198E09093F000DD
:100F000082FF20C093E09093E9009091F200992332
:100F100019F09AE39093E80090915F01992339F0DA
:100F200090915F01915090935F01992389F1909185
:100F30006101992339F09091610191509093610181
:100F4000992341F184FF10C08091E2008E7E816080
:100F50008093E2008091E1008F7E8093E100809198
:100F600060018E7E806111C080FF16C08091E2001A
:100F70008E7E80618093E2008091E1008E7E80937E
:100F8000E100809160018E7E81608093600104C0E9
:100F90005D9ACDCF289AD6CF9F918F910F900FBE9B
:100FA0000F901F9018951F920F920FB60F92112459
:100FB000CF92DF92EF92FF920F931F932F933F9365
:100FC0004F935F936F937F938F939F93AF93BF9351
:100FD000EF93FF93CF93DF93CDB7DEB76C97DEBF70
:100FE000CDBF1092E9008091E80083FFFAC168E06C
:100FF000CE0145960E94E00682EF8093E8008D893D
:1010000087FF05C09091E80090FFFCCF03C09EEFE2
:101010009093E800982F907609F0C6C09E892F899A
:10102000188D91110CC0803829F48091C0018093F3
:10103000F10002C01092F1001092F10047C1422F5E
:1010400050E0512B913051F4811140C14130510594
:1010500009F03CC18091C0018D7F0BC0933061F4D9
:10106000811134C14130510509F030C18091C00176
:1010700082608093C0012AC1953041F48091E800DC
:1010800080FFFCCF20682093E30020C1963009F058
:101090005FC0EB8CFC8C1092E9001092C50110929D
:1010A000C401123091F51092C3011092C2010E9446
:1010B0002F0799E0BE016F5F7F4FDB01E92F1D9283
:1010C000EA95E9F799831A8391E09E8390EA9887DD
:1010D0009AEF99872091C4013091C501275F3F4F56
:1010E0003C832B838D831092E9001092C5011092EE
:1010F000C401F092C301E092C20149E050E080E0F7
:101100000E94B9060E942F07E1C0F092C301E0924D
:10111000C2010E943C06DC011296ED90FC901397F0
:10112000E114F10409F4C0C0D701ED91FC910480F1
:10113000F581E02DBE016B5E7F4FC70109950097D9
:1011400019F00CF0C3C0C6C0F701E084F184E8CF09
:10115000973009F4BFC0983021F481E08093F1000A
:10116000B5C0993009F0B2C0837009F0B3C0E1E3B3
:10117000F1E081E021E036E39081992361F08093F2
:10118000E9002093EB0091919093EC003093ED00F7
:101190008F5F873089F78EE78093EA001092EA002C
:1011A0008F898093620192C08B8D9C8D1092E90093
:1011B0001092C5011092C4019093C3018093C201A3
:1011C000898D811156C08E899D89913A59F4813259
:1011D00009F080C047E050E060E071E080E00E94EC
:1011E000B90674C0913209F075C0833289F4888DD4
:1011F00090E0982F88272F89822BA0E0B0E0809381
:10120000080190930901A0930A01B0930B015EC0FD
:10121000803269F48091E80082FFFCCF67E080E0D3
:1012200091E00E94E0068BEF8093E80006C08232D6
:1012300009F04CC08F89809307018091BF018823FA
:1012400019F0EEEFFAE002C0E0E0F8E08091000172
:1012500090910101A0910201B0910301803B944063
:10126000A105B10509F088C08091070180FFA0C0E9
:1012700083C00E943C06DC0112960D911C911397CD
:101280000115110539F1D801ED91FC910190F08122
:10129000E02DBE016B5E7F4FC8010995811116C01C
:1012A000F80100851185ECCF1130C1F0133091F4B5
:1012B0008F89882309F455C08230E9F440E86BE057
:1012C0008FEA91E00E94190E882321F08EEF80931F
:1012D000E80087C081E28093EB0083C08B8D9C8DFA
:1012E000089711F41093C1018091C101811136C09A
:1012F0006BEB71E038C0813029F440E86BE083EAA1
:1013000091E0E0CF833031F70E943C06DC01129679
:10131000ED90FC9013978E010F5F1F4F6801E11451
:10132000F10479F0D701ED91FC910680F781E02D71
:10133000B801C7010995080F111DF701E084F18478
:10134000EECFD8011C92F60101900020E9F7319709
:10135000BF016C197D0940E0C601B4CF6DEC71E0AE
:1013600002C06FE971E06115710509F4B3CFFB01AB
:10137000449150E080E833CF0FB6F894A89580915F
:101380006000886180936000109260000FBEA89595
:10139000EE3F2AE0F20739F08091FE0A9091FF0AB1
:1013A0009183808393CF1092FF0A1092FE0A8ECF12
:1013B000EE3F8AE0F80731F0808191819093FF0A37
:1013C0008093FE0A87E797E7918380839BE088E11B
:1013D0000FB6F894A895809360000FBE90936000BC
:1013E00075CF6C960FB6F894DEBF0FBECDBFDF9100
:1013F000CF91FF91EF91BF91AF919F918F917F918D
:101400006F915F914F913F912F911F910F91FF909D
:10141000EF90DF90CF900F900FBE0F901F90189518
:10142000789484B5826084BD84B5816084BD85B5BF
:10143000826085BD85B5816085BD80916E008160CB
:1014400080936E0010928100809181008260809371
:101450008100809181008160809381008091800073
:1014600081608093800080919100826080939100E0
:1014700080919100816080939100809190008160C3
:10148000809390008091C10084608093C10080911E
:10149000C10082608093C1008091C100816080930F
:1014A000C1008091C30081608093C3008091C0001F
:1014B00082608093C0008091C20081608093C200EE
:1014C00080917A00846080937A0080917A008260B3
:1014D00080937A0080917A00816080937A00809175
:1014E0007A00806880937A00109262011092C001A5
:1014F000109260018091D70081608093D70080EACC
:101500008093D80089B5806189BD89B5826089BD25
:1015100009B400FEFDCF61E070E080E090E00E9441
:1015200085028091D8008F7C80618093D800809163
:10153000E000807F8093E0008091E1008E7E8093C8
:10154000E1008DE08093E200559A209AEEEFFFE7EC
:10155000859194918B3F9C4D19F481E08093BF015C
:1015600060917202613F21F1209173023091740207
:10157000615031F070E08FEF90EF0E94660E02C074
:1015800060E070E0F90140916F0250917002CF016C
:10159000821B930B8417950740F44081469FC0013E
:1015A000479F900D11249193EECF81EF80937202AB
:1015B000809180029091810288309105B1F097FD71
:1015C00007C060E00E944902809180020E94EA0503
:1015D00088E090E0909381028093800260E00E9416
:1015E0004902809180020E94EA0561E670E08BE684
:1015F00092E00E943A036CE08BE692E00E940903BD
:1016000010928302109282028091710287FD07C0BE
:1016100061E00E944902809171020E94EA0581E026
:1016200080936C0240916F025091700260E070E014
:1016300080917302909174020E94B20F80917302A4
:1016400090917402892B21F08BE692E00E94410177
:1016500085E0E6E6F2E0ACE4B2E001900D928A9516
:10166000E1F785E0E1E6F2E0A1E5B2E001900D925C
:101670008A95E1F785E0E1E6F2E0A6E3B2E00190C9
:101680000D928A95E1F785E0E6E6F2E0ABE3B2E0A1
:1016900001900D928A95E1F785E0ECE5F2E0A0E299
:1016A000B2E001900D928A95E1F785E0E9EEF1E074
:1016B000A5E2B2E001900D928A95E1F785E0E9EEAE
:1016C000F1E0AAE0B2E001900D928A95E1F785E0A1
:1016D000E4EEF1E0AFE0B2E001900D928A95E1F71F
:1016E00085E0E4EEF1E0A4EFB1E001900D928A957F
:1016F000E1F785E0ECE5F2E0A9EFB1E001900D92B1
:101700008A95E1F700E010E080915D0190915E0123
:10171000FC01EE0FFF1FE65EFE4FC080D180E0911E
:101720005B01F0915C01EE0FFF1FEE5EFE4FE0806B
:10173000F180029754F010925E0110925D011092B8
:101740005A01F6E4CF2EF2E0DF2E80915A0181118A
:1017500008C0D601ED91FC910480F581E02DC60111
:101760000995D601ED91FC910680F781E02D6BE69D
:1017700072E0C601099580935A01811109C08091D8
:101780005D0190915E01019690935E0180935D01F1
:1017900080915B0190915C01039754F010925C0181
:1017A00010925B0110925901EAE1EE2EE2E0FE2E6A
:1017B00080915901811108C0D701ED91FC910480FD
:1017C000F581E02DC7010995D701ED91FC910680C7
:1017D000F781E02D6BE672E0C7010995809359010E
:1017E000811109C080915B0190915C0101969093F9
:1017F0005C0180935B01809182029091830297FD4E
:101800006FC08FB7F894C0905501D0905601E0900A
:101810005701F09058018FBF80E090E020E034E065
:10182000EFB7F894409155015091560160915701DE
:1018300070915801EFBF4C195D096E097F0948325C
:1018400051056105710508F03EC0E0918202E23168
:1018500008F0E251F0E0EA51FF4FE49160917B0023
:10186000E3FBBB27B0F9CB2F40E0D42FAE0175E0EE
:10187000440F551F7A95E1F7562F5F7D452B409316
:101880007B00E770E064E0937C0040917A00406464
:1018900040937A0040917A0046FDFCCF4091780059
:1018A0006091790050E0562B411564E0560708F02E
:1018B000B7CF8417950708F4CA014217530708F0F9
:1018C000AFCF9A01ADCF8115A2E09A0710F08FEF4C
:1018D00091E0821B930B969587958093840206C0B6
:1018E00068E270E080E090E00E9485020115110539
:1018F00009F40ACF0E94000007CFDF92EF92FF9217
:101900000F931F93CF93DF93CDB7DEB72F970FB60B
:10191000F894DEBF0FBECDBF10927201109271011C
:1019200088EE93E0A0E0B0E080937301909374019F
:10193000A0937501B093760184E291E090937001D9
:1019400080936F010FEF1FEF10937C0100937B01D9
:1019500010926C0210927202109274021092730232
:101960001092790210927A0210927B0210927C02FD
:1019700081E080937802809375021092760292E063
:101980009093770280936B0260E070E08BE692E0C8
:101990000E943A036FEF8BE692E00E9409031093D6
:1019A00081020093800210938302009382021092BE
:1019B000840260917202603821F1209173023091AB
:1019C0007402615031F070E08FEF9FE70E94660E65
:1019D00002C060E070E0F90140916F025091700226
:1019E000CF01821B930B8417950740F44081469FDB
:1019F000C001479F900D11249193EECF80E8809312
:101A00007202DD24DA94D09266021092670210927C
:101A1000680281EA8093690210926A02D0926102A0
:101A2000D0926202D09263028093640210926502A7
:101A30006CE572E0CE010B960E9476036CE572E0D5
:101A4000CE0106960E9476036CE572E0CE01019607
:101A50000E947603CE010B967C018E010A5F1F4F18
:101A60009E012F5F3F4F4DE250E064E370E086E45B
:101A700092E00E94CF046CE572E0C7010E947603F9
:101A80006CE572E0C8010E9476036CE572E0CE015D
:101A900001960E9476039E012F5F3F4F4DE250E07A
:101AA00064E370E080E392E00E94CF046CE572E0B2
:101AB000C7010E9476036CE572E0C8010E947603BC
:101AC0006CE572E0CE0101960E9476039E012F5FC5
:101AD0003F4F44E350E060E070E08AE192E00E9412
:101AE000CF046CE572E0C7010E9476036CE572E0FA
:101AF000C8010E9476036CE572E0CE0101960E9457
:101B000076039E012F5F3F4F44E350E060E070E0BA
:101B100084E092E00E94CF046CE572E0C7010E946D
:101B200076036CE572E0C8010E9476036CE572E012
:101B3000CE0101960E9476039E012F5F3F4F44E342
:101B400050E060E070E08EEE91E00E94CF041092D1
:101B50005C0210925D0210925E0210925F0210927F
:101B60006002D092E901D092EA01D092EB0110928A
:101B7000EC011092ED01D092E4011092E501109277
:101B8000E6011092E7011092E8011092DF01D09275
:101B9000E0011092E1011092E2011092E301109233
:101BA000DA011092DB01D092DC011092DD0110927B
:101BB000DE01D092D50188E58093D60180E580933F
:101BC000D7011092D8011092D9018BE58093D001F2
:101BD0008DEB8093D1018FED8093D2011092D301D0
:101BE0001092D401D092CB0188E88093CC0180E898
:101BF0008093CD011092CE011092CF0184E28093A8
:101C0000C60185EC8093C70187E58093C8011092D7
:101C1000C9011092CA012F960FB6F894DEBF0FBE0D
:101C2000CDBFDF91CF911F910F91FF90EF90DF908B
:101C30000895CF92DF92EF92FF920F931F93CF936D
:101C4000DF931F92CDB7DEB7182F062FE42E862F15
:101C5000880F8E5F99830E948B0683E00E948B061B
:101C6000F12EC12E9981D92E8C2D8F19801798F4C1
:101C7000F601E7FE02C0849101C080810E948B06BC
:101C8000182F80E00E948B068123FFEFCF1ADF0A16
:101C90008111EACF01C081E00F90DF91CF911F91B8
:101CA0000F91FF90EF90DF90CF9008958091730295
:101CB00090917402009711F00E94150F80917102AB
:101CC00087FD03C060E00C9449020895AA1BBB1B6A
:101CD00051E107C0AA1FBB1FA617B70710F0A61B2C
:101CE000B70B881F991F5A95A9F780959095BC014D
:101CF000CD010895EE0FFF1F0590F491E02D09949A
:101D0000CF93DF938230910510F482E090E0E09170
:101D10008702F091880220E030E0C0E0D0E0309708
:101D200011F14081518148175907C0F048175907F0
:101D300061F482819381209719F09B838A832BC061
:101D4000909388028093870226C02115310519F0EF
:101D50004217530718F49A01BE01DF01EF01028018
:101D6000F381E02DDCCF2115310509F1281B390B5A
:101D70002430310590F412968D919C911397611542
:101D8000710521F0FB019383828304C09093880244
:101D900080938702FD01329644C0FD01E20FF31FDC
:101DA00081939193225031092D933C933AC0209115
:101DB000850230918602232B41F420910E0130914F
:101DC0000F01309386022093850220910C013091FF
:101DD0000D012115310541F42DB73EB74091100199
:101DE00050911101241B350BE0918502F091860280
:101DF000E217F307A0F42E1B3F0B2817390778F0E2
:101E0000AC014E5F5F4F2417350748F04E0F5F1F40
:101E100050938602409385028193919302C0E0E043
:101E2000F0E0CF01DF91CF9108950F931F93CF93EF
:101E3000DF93009709F48CC0FC0132971382128261
:101E400000918702109188020115110581F420810B
:101E50003181820F931F20918502309186022817CD
:101E6000390779F5F0938602E093850271C0D801B5
:101E700040E050E0AE17BF0750F412962D913C9110
:101E80001397AD012115310509F1D901F3CF9D015A
:101E9000DA013383228360817181860F971F821755
:101EA000930769F4EC0128813981260F371F2E5FD3
:101EB0003F4F318320838A819B8193838283452B8B
:101EC00029F4F0938802E093870242C01396FC93B2
:101ED000EE931297ED01499159919E01240F351F00
:101EE000E217F30771F480819181840F951F0296A8
:101EF00011969C938E938281938113969C938E93DB
:101F00001297E0E0F0E0D80112968D919C91139722
:101F1000009719F0F8018C01F6CF8D919C919801F2
:101F20002E5F3F4F820F931F2091850230918602D2
:101F30002817390769F4309729F410928802109213
:101F4000870202C0138212821093860200938502D8
:101F5000DF91CF911F910F91089581E090E0F89467
:101F60000C94B90FDC0101C06D9341505040E0F773
:101F7000089510E0C1EFD0E004C0FE010E947A0E87
:0C1F80002196C23FD107C9F7F894FFCFAB
:101F8C0000E1000000000000FFFFFFFF00008902DD
:101F9C0080001A020402EE0100004602300200002A
:101FAC000000000050065E057106ED060B07660684
:101FBC0000C180810000000000000075030A0207C8
:101FCC00020502000000007403080202028A0300EA
:1070000055C000006EC000006CC000006AC00000E7
:1070100068C0000066C0000064C0000062C00000DC
:1070200060C000005EC00000FCC400005AC0000048
:1070300058C0000056C0000054C0000052C00000FC
:1070400050C000005DC000004CC000004AC00000FD
:1070500048C0000046C0000044C0000042C000001C
:1070600040C000003EC000003CC000003AC000002C
:1070700038C0000036C0000034C0000032C000003C
:1070800030C000002EC000002CC000002AC000004C
:1070900028C0000026C0000024C0000022C000005C
:1070A00020C000001EC000001CC0000011241FBE34
:1070B000CFEFDAE0DEBFCDBF11E0A0E0B1E0E6E463
:1070C000FFE702C005900D92A63AB107D9F711E08B
:1070D000A6EAB1E001C01D92AF3BB107E1F74FD383
:1070E00030C78ECFF89410926F001092810081E02B
:1070F00085BF15BE47985D9A289A0C9400000895A4
:107100001F920F920FB60F9211242F938F939F937C
:10711000EF93FF9310928500109284008091A60156
:107120009091A701009741F001979093A701809358
:10713000A601892B09F45D9A8091A8019091A9017B
:10714000009741F001979093A9018093A801892BA2
:1071500009F4289A8091AC019091AD010196909329
:10716000AD018093AC01E0E0F0E0859194918F5FF8
:107170009F4F49F08091AA019091AB0101969093A5
:10718000AB018093AA01FF91EF919F918F912F9175
:107190000F900FBE0F901F90189584E08093E90028
:1071A0000DC08091E8008B778093E80003C08EB318
:1071B000882351F08091E80082FFF9CF8091E800A8
:1071C00085FFEFCF8091F1000895982F83E08093A1
:1071D000E9008091E80085FD0DC08091E8008E7780
:1071E0008093E80003C08EB3882369F08091E800A3
:1071F00080FFF9CF9093F1005D9884E690E0909342
:10720000A7018093A60108954F925F926F927F929B
:107210008F929F92AF92BF92CF92DF92EF92FF92A6
:107220000F931F93CF93DF9384E08093E9008091C5
:10723000E80082FF57C2289884E690E09093A90165
:107240008093A801AADF182F853481F48CE49DE196
:107250009093AB018093AA0107B600FCFDCFF9998A
:10726000FECF81E180935700E89503C0843519F47F
:1072700094DF8DE00DC28C34E1F38035D1F3843797
:1072800021F484E4A2DF80E003C2813611F489E5B1
:10729000FFC18134B1F481DF182F7FDF90E0880FC8
:1072A000991FAA2797FDA095BA2F312F330F20E001
:1072B000442737FD4095542F822B932BA42BB52BBD
:1072C000B8C1803711F483E5E3C1833549F4C0E0E8
:1072D000D1E089917ADF21E0C730D207D1F7D9C157
:1072E000863521F481E371DF80E3D2C1833731F445
:1072F00087E86BDF85E969DF8EE1CAC18536B9F4BD
:10730000E0E0F0E093E085E090935700E89507B661
:1073100000FCFDCF80935700E89507B600FCFDCF39
:10732000E058FF4FA0E7E030FA0771F7A2CF8237AD
:1073300039F4E1E0F0E089E0809357008491A8C13E
:10734000863439F4E0E0F0E089E0809357008491DE
:107350009FC18E3439F4E3E0F0E089E08093570078
:10736000849196C1813539F4E2E0F0E089E08093C0
:10737000570084918DC1823631F489E526DF80E0A3
:1073800024DF80E885C1823419F0873609F0E5C032
:107390001092AB011092AA0100DF082FFEDEF82E3A
:1073A000FCDE682E8554823008F071C1902F80E099
:1073B000CF2DD0E0C82BD92B10926F00173609F0D3
:1073C0004BC081E180935700E895DD24CC24C39421
:1073D0003FC0E090AF01F090B0010091B101109179
:1073E000B201B6E46B16D9F4ED2DF0E0EE29FF29D9
:1073F000E4918E2FEADEDD2081F082E090E0A0E0D3
:10740000B0E0E80EF91E0A1F1B1FE092AF01F092D8
:10741000B0010093B1011093B201DC2418C0D8016F
:10742000C701B695A7959795879575D5CEDE82E06D
:1074300090E0A0E0B0E0E80EF91E0A1F1B1FE092EA
:10744000AF01F092B0010093B1011093B201219706
:10745000209709F0BECF7DC08090AF019090B00121
:10746000A090B101B090B20196E4691609F05DC038
:1074700083E0F40180935700E89507B600FCFDCF48
:1074800054C0F6E46F1661F5772031F1E090AF015A
:10749000F090B0010091B1011091B2017EDED82EC2
:1074A000CC24852D90E08C299D29F7010C01409278
:1074B0005700E895112482E090E0A0E0B0E0E80EEB
:1074C000F91E0A1F1B1FE092AF01F092B00100935A
:1074D000B1011093B20102C060DE582E742423C0A3
:1074E000E090AF01F090B0010091B1011091B201B4
:1074F00016950795F794E79450DE682FC70113D5CA
:107500008091AF019091B001A091B101B091B20111
:107510000296A11DB11D8093AF019093B001A0937D
:10752000B101B093B201219704C0552477244424BB
:107530004394209709F0A5CF96E4691641F485E0BD
:10754000F40180935700E89507B600FCFDCF8DE06D
:107550003CDE82E080936F009CC0833471F4009124
:10756000AF011091B00119DE90E021E0F8010C01AB
:1075700020935700E89511247CCE833619F5E090CE
:10758000AF01F090B0010091B1011091B20105DEA0
:10759000F701E16090E021E00C0120935700E895AD
:1075A000112482E090E0A0E0B0E0E80EF91E0A1F8E
:1075B0001B1FE092AF01F092B0010093B101109354
:1075C000B20157CE8D3661F4E091AF01F091B00178
:1075D00085E080935700E89507B600FCFDCF49CEC3
:1075E000823551F4E091AF01F091B0010591149111
:1075F000812FEBDD802F4CC0843421F5E090AF016A
:10760000F090B0010091B1011091B201169507956B
:10761000F794E794C2DD682FC70185D48091AF014C
:107620009091B001A091B101B091B2010296A11D5B
:10763000B11D8093AF019093B001A093B101B093BD
:10764000B20117CE843609F5E090AF01F090B00199
:107650000091B1011091B201D801C701B695A7956B
:107660009795879558D4B1DD82E090E0A0E0B0E036
:10767000E80EF91E0A1F1B1FE092AF01F092B00145
:107680000093B1011093B20104C08B3111F08FE36C
:107690009CDD83E08093E9009091E8008091E80010
:1076A0008E778093E80095FF04C010C08EB38823C6
:1076B000C9F08091E80080FFF9CF8091E8008E77D3
:1076C0008093E80003C08EB3882361F08091E800C6
:1076D00080FFF9CF84E08093E9008091E8008B7708
:1076E0008093E800DF91CF911F910F91FF90EF9071
:1076F000DF90CF90BF90AF909F908F907F906F90D2
:107700005F904F9008959091B701892F8F778132C4
:1077100049F58091B8018032A1F0813219F5913A92
:1077200009F58091E800877F8093E8008CE091E084
:1077300067E070E027D28091E8008B778093E800C3
:107740000895913279F48091E800877F8093E80072
:107750008CE091E067E070E079D28091E8008E776C
:107760008093E800089582E061EC42E0D1D083E0AC
:1077700061E842E1CDD084E060E842E1C9C01F93F6
:10778000209100081092000844B714BE88E10FB69B
:10779000F89480936000109260000FBE80E8E0E0F3
:1077A000F0E00FB6F89480936100E09361000FBEA3
:1077B00031E035BF92E095BF3F9A209A559A809369
:1077C00061001092610047985D9A289A1092890092
:1077D0008AEF8093880090936F0083E0809381000C
:1077E000859194918F5F9F4F11F03093AE01942F4C
:1077F00041FF19C0809109012817A9F08093000862
:10780000789480911301882339F08091AC01909194
:10781000AD018F5E9240C8F310920008F89481E0A9
:10782000809313010CC090FF04C08091AE018823A7
:1078300051F493FF09C080910901281729F0809124
:10784000AE01882309F04EDCD4D078941092AB01BD
:107850001092AA011EEF20C0D7DC4BD38091AA0161
:107860009091AB0181549F4110F0109213018091CF
:10787000B3019091B40101969093B4018093B30148
:10788000292F97FF03C0512F591B252F220F28178F
:1078900010F4479801C0479A809113018823E1F6BC
:1078A0008091E00081608093E0001CDC80E090E04B
:1078B0001F910895FA01923049F0933061F09130B0
:1078C000F9F484E191E022E130E01EC086E291E02B
:1078D0002EE330E019C0882329F484E691E024E007
:1078E00030E012C0813029F488E691E022E230E0F5
:1078F0000BC0823029F48CE891E028E130E004C02C
:1079000080E090E020E030E091838083C901089519
:107910008093E9008091EB0081608093EB001092EE
:10792000ED006093EC004093ED008091EE00881F25
:107930008827881F08958091B70188238CF403C09D
:107940008EB38823B1F08091E80082FFF9CF809157
:10795000E8008B778093E80008958EB3882349F080
:107960008091E80080FFF9CF8091E8008E778093C6
:10797000E8000895EF92FF920F931F9345D04CD0EB
:1079800008ED10E0F80180818F7780838081806826
:10799000808380818F7D808319BC1EBA1092B501CF
:1079A00080EEE82EF12CF70180818B7F8083F80137
:1079B00080818160808380E060E042E0A9DFE1EEC9
:1079C000F0E080818E7F8083E2EEF0E08081816054
:1079D0008083808188608083F70180818E7F8083AF
:1079E000F8018081806180831F910F91FF90EF905B
:1079F0000895E7EDF0E08081816080838AE482BFB2
:107A000081E08093B601B6CFE8EDF0E080818E7F13
:107A100080831092E20008951092DA001092E10043
:107A200008951F920F920FB60F9211242F933F9338
:107A30004F935F936F937F938F939F93AF93BF9376
:107A4000EF93FF938091DA0080FF1BC08091D800F4
:107A500080FF17C08091DA008E7F8093DA008091DA
:107A6000D90080FF0BC080E189BD82E189BD09B4E6
:107A700000FEFDCF81E08EBB3BD203C019BC1EBA15
:107A800037D28091E10080FF17C08091E20080FF33
:107A900013C08091E2008E7F8093E2008091E2002B
:107AA00080618093E2008091D80080628093D8004A
:107AB00019BC85E08EBB1CD28091E10084FF2CC0F4
:107AC0008091E20084FF28C080E189BD82E189BD08
:107AD00009B400FEFDCF8091D8008F7D8093D8003F
:107AE0008091E1008F7E8093E1008091E2008F7EA3
:107AF0008093E2008091E20081608093E2008091B7
:107B0000B501882331F48091E30087FD02C081E054
:107B100001C084E08EBBECD18091E10083FF21C0E5
:107B20008091E20083FF1DC08091E100877F8093F8
:107B3000E10082E08EBB1092B5018091E1008E7F62
:107B40008093E1008091E2008E7F8093E20080913B
:107B5000E20080618093E20080E060E042E0D8DEF5
:107B6000C7D1FF91EF91BF91AF919F918F917F917D
:107B70006F915F914F913F912F910F900FBE0F909A
:107B80001F9018959C014091BD015091BE01461770
:107B9000570718F4F90190E044C06115710511F020
:107BA000AB01F8CF8091E8008E778093E80040E049
:107BB00050E0F0CF8EB3882309F444C0853009F437
:107BC00043C08091E80083FF02C081E00895809166
:107BD000E80082FD31C08091E80080FF22C08091E2
:107BE000F3009091F200782F60E0292F30E0262BEF
:107BF000372B07C081918093F100415050402F5F97
:107C00003F4F4115510519F02830310598F390E0A8
:107C10002830310509F491E08091E8008E77809357
:107C2000E8004115510531F6992321F605C08EB3C0
:107C3000882341F0853041F08091E80082FFF7CF42
:107C400080E0089582E0089583E008959C01611525
:107C5000710529F48091E8008B778093E800F901A1
:107C600026C08EB3882391F1853091F18091E80090
:107C700083FF02C081E008958091E80082FFF1CF88
:107C800006C08091F10081936150704059F02091BD
:107C9000F3008091F200322F20E090E0822B932BB2
:107CA000892B79F78091E8008B778093E800611544
:107CB0007105B9F605C08EB3882341F0853041F0D7
:107CC0008091E80080FFF7CF80E0089582E008957A
:107CD00083E008950F931F93DF93CF9300D0CDB728
:107CE000DEB7E7EBF1E08091F100819381E0EF3BBB
:107CF000F807C9F708DD8091E80083FFE4C08091B0
:107D0000B7019091B801953009F46DC0963040F4F8
:107D1000913081F1913070F0933009F0D4C02AC0D5
:107D2000983009F4A3C0993009F4B2C0963009F034
:107D3000CAC07CC0803809F4C6C0823809F0C3C00C
:107D40008091BB0187708093E9008091EB001092D5
:107D5000E9002091E800277F2093E80090E025E0EB
:107D6000969587952A95E1F781708093F10010929E
:107D7000F10087C0882319F0823009F0A4C08F7108
:107D8000823009F0A0C08091B901882331F520919B
:107D9000BB01277009F497C02093E9008091EB00A4
:107DA00080FF1BC0933021F48091EB00806213C0F0
:107DB0008091EB0080618093EB0081E090E002C055
:107DC000880F991F2A95E2F78093EA001092EA0043
:107DD0008091EB0088608093EB001092E900809125
:107DE000E800877F51C0882309F06DC01091B90168
:107DF0001F770FB7F8948091E800877F8093E800A1
:107E00009ADD8091E80080FFFCCF8091E3008078CC
:107E1000812B8093E30080688093E300112311F4A9
:107E200082E001C083E08EBB0FBF4DC0805882301E
:107E300008F049C08091B9019091BA016091BB01ED
:107E4000AE014F5F5F4F36DDBC01009709F43BC0C8
:107E50008091E800877F8093E80089819A8192DE93
:107E60008091E8008B778093E8002DC0803859F529
:107E70008091E800877F8093E8008091B50180932E
:107E8000F1008091E8008E778093E80054DD1BC0FC
:107E90008823C9F49091B9019230A8F48091E80048
:107EA000877F8093E8009093B50145DD8091B5010F
:107EB000882331F48091E30087FD02C081E001C096
:107EC00084E08EBB50DC8091E80083FF0AC0809183
:107ED000EB0080628093EB008091E800877F8093C5
:107EE000E8000F900F90CF91DF911F910F910895AF
:107EF00008951F938EB3882361F01091E9001092CA
:107F0000E9008091E80083FF01C0E4DE1770109360
:107F1000E9001F910895F999FECF92BD81BDF89AAD
:107F2000992780B50895262FF999FECF1FBA92BDE3
:107F300081BD20BD0FB6F894FA9AF99A0FBE01964A
:067F40000895F894FFCF44
:107F46004341544552494E41007700080000000065
:107F5600000008011201100102000008412341003F
:107F660001000201000109023E00020100803209FF
:107F7600040000010202010005240010010424028D
:107F8600040524060001070582030800FF09040111
:107F960000020A000000070504021000010705831D
:107FA6000210000104030904220341007200640068
:107FB600750069006E006F002000590075006E00A4
:107FC60020002000200020002000000018034100AF
:107FD60072006400750069006E006F0020004C009E
:067FE6004C004300000006
:040000030000700089
:00000001FF
